:020000041000EA
:1000000000B5324B212058609868022188439860DF
:10001000D860186158612E4B002199600221596106
:100020000121F02299502B49196001219960352056
:1000300000F044F80222904214D00621196600F024
:1000400034F8196E01211966002018661A6600F04E
:100050002CF8196E196E196E052000F02FF8012189
:100060000842F9D1002199601B49196000215960AB
:100070001A491B48016001219960EB211966A021F2
:10008000196600F012F800219960164914480160C1
:100090000121996001BC002800D000471248134993
:1000A000086003C880F30888084703B5996A0420EC
:1000B0000142FBD001200142F8D103BD02B5186610
:1000C0001866FFF7F2FF186E186E02BD00000240BE
:1000D000000000180000070000035F00212200005C
:1000E000F4000018222000A00001001008ED00E03C
:1000F00000000000000000000000000074B24E7A12
:1001000000200420F7010010C3010010C5010010F9
:10011000C1010010C1010010C1010010C101001097
:10012000C1010010C1010010C1010010C701001081
:10013000C1010010C1010010C9010010CB01001065
:10014000CD010010CD010010CD010010CD01001037
:10015000CD010010CD010010CD010010CD01001027
:10016000CD010010CD010010CD010010CD01001017
:10017000CD010010CD010010CD010010CD01001007
:10018000CD010010CD010010CD010010CD010010F7
:10019000CD010010CD010010CD010010CD010010E7
:1001A000CD010010CD010010CD010010CD010010D7
:1001B000CD010010CD010010CD010010CD010010C7
:1001C00000BE00BE00BE00BE00BE00BEEFF3058054
:1001D000103800BEF2EB8871045300102853001051
:1001E0003402001090A31AE700201F49086006C8D7
:1001F00081F3088810471D48006800282FD10DA4FE
:100200000ECC002902D000F012F8F9E71849194A7B
:10021000002000E001C19142FCD1174988471749ED
:1002200088471749884700BEFDE701C901C29A42C5
:10023000FBD3704728530010C0000020300F00206F
:100240009861001000000420000004209861001054
:10025000001004200010042000000000704709482E
:1002600001F054FE0047000008ED00E0000000D05F
:10027000300F0020B81C0020851D00105503001011
:10028000791E00105756000006005250ABB3605361
:10029000B450001006005250861C0302C4500010D7
:1002A000060052505422A29DD45000100500525016
:1002B000DE65F46898610010F8B5C0460448054B47
:1002C00010B5834203D0044B002B00D0984710BDDB
:1002D000300F0020300F00200000000006480749C2
:1002E000091A8B10C90FC91810B5491003D0044B57
:1002F000002B00D0984710BD300F0020300F002099
:100300000000000010B5074C2378002B09D1FFF73F
:10031000D5FF054B002B02D0044800E000BF0123AD
:10032000237010BD6012002000000000C04F0010BC
:10033000054B10B5002B03D00449054800E000BF71
:10034000FFF7CCFF10BDC046000000006412002083
:10035000C04F0010F0B5C64600B582B002F086FB73
:100360002E492F4804F0F2FC112000F079F8D02338
:1003700080221B0692025A6201215A61122000F06B
:1003800057F80121132000F053F8264B002498461B
:1003900001AD31E0FA2320005B009C4233D802F02B
:1003A00093F9214902F075F902F0B0F900221F4BD0
:1003B00001F037FE01F042FE80B283093033800045
:1003C0002B706870C046C046C046D02780263F06C6
:1003D000B602BE61C046C046C0460222290010488F
:1003E00004F0BEFDC046C046C0467E61C046C04661
:1003F000C046012000F0E6FE0134A4B24445C9D154
:1004000000200024D9E702F05FF9074902F041F922
:10041000011C8020C00502F036F9C5E7400D03003D
:1004200000C00340E90300000000FA4300009040D0
:10043000094A10B594464024830063441A68C000FA
:100440006240803414408022520113431C60034BED
:100450009C466044416010BD04C001400040014022
:100460000123D0228340120693629361094A4021FE
:100470009446830063441A68C0004A4080311140AA
:100480008022520113431960034B9C4605236044AC
:100490004360704704C0014000400140024B1868AF
:1004A0008007C00F7047C04600C0064070B5EFF32C
:1004B000108C72B60D4D2B68002BFCD0BFF35F8FF4
:1004C0000724CB08C618C05C01230C40A3401C00C5
:1004D0000440034207D118433070BFF35F8F2C6094
:1004E0008CF3108870BD100001F0CAFC2C0100D004
:1004F000F8B54746CE46884680B5EFF3108C72B605
:10050000214D2C68002CFCD0BFF35F8F9A422CD871
:10051000D4080727055D061901241740BC402C426A
:100520001FD007210127894609E0D408055D061977
:100530004C4639001440A1400C00294211D0013230
:100540009342F2D201204042BFF35F8F00220E4B54
:100550001A608CF3108800280FDBC0BCB946B04687
:10056000F8BD254310003570EEE7BFF35F8F002321
:100570002B608CF31088012040424346002BECD0C6
:10058000089801F07DFCC0462C0100D00021044BEE
:10059000044ABFF35F8F02C39342FAD17047C0464B
:1005A000000100D0800100D0044A1078431CDBB267
:1005B000172B00D9102313707047C046380E002047
:1005C00010B5064B064C82B00100009318221F2381
:1005D0002000FFF78DFF02B010BDC046C04F0010D5
:1005E000D817002001238340002904D0034A136058
:1005F000034A13607047034A1360FBE780E200E0A0
:1006000000E100E080E100E001238340014A136043
:100610007047C04600E200E0084B10309B68800045
:10062000C358002B07D0064A00209B1A2F229A425B
:100630004041C0B270470020FCE7C04600ED00E03A
:100640003C0E0020024B10309B688000C058704761
:1006500000ED00E070B50D00EFF3108672B60F4AA2
:100660001368002BFCD0BFF35F8F0D4B10309B68DD
:1006700084001B590B4A934203D09D4201D001F0E4
:1006800017FC074B9B681D51BFF35F8FBFF35F8F54
:100690000022024B1A6086F3108870BD240100D03E
:1006A00000ED00E0CD010010F0B557464E46DE46A5
:1006B0004546E0B585B0060000911700EFF3108BBA
:1006C00072B66A4A1368002BFCD0BFF35F8F002517
:1006D000674B5D579A46002D00DA8BE06B00654C46
:1006E00001935B199B009846A146C1444B46524674
:1006F0009B7910361370604BB6009B6899590B1BA1
:100700002F2B33D95D4B994200D0ACE0019B424680
:100710009C465B4B6544AD0063535A4B0232A218B2
:10072000043B9B1A1B05584A5B0D651913436B80EC
:10073000564B0121AB80FF23AB71009BEF71AB6087
:100740004B460B4319004C4B9B689951BFF35F8F8D
:10075000BFF35F8F0022454B1A608BF3108805B002
:10076000F0BCBB46B246A946A046F0BD01200A0037
:100770008243D3798C46BB4231D845461300444965
:100780001B1B5B415943090D3D4B63533D4B0235E8
:100790006519043B5B1B1B053B4D5B0D2B43AA46B8
:1007A0004D466B800425AC465546E044131F444437
:1007B0001B1B1B055B0D1D434B46997100999D80CA
:1007C00099604946DF71334B01431360BBE7580022
:1007D000C01880002018C179B94211D9020006233F
:1007E000D356002BF3DA0293131D9A462A4B614627
:1007F000039319E001F05CFB002553465D576DE75C
:10080000908802934005131D9A46031561469C4645
:100810004046D444634604302018181AE0230005EB
:10082000400D1B021843039004235B429C46E144A5
:1008300050464B461B1A1B055B0D9C46124B95718F
:1008400098466346404603439380019B5A199200A1
:10085000039BA418A380029B0E4AA371009B2260F5
:10086000E771A3606FE701F023FB4FE7240100D09D
:10087000B11C00203C0E002000ED00E0CD01001076
:1008800000A1FFFF6C0E002000E0FFFF01BDFFFF95
:10089000AAAA00000148804701BD0000F0B5DE466D
:1008A00057464E464546E0B50C0083B0EFF310883E
:1008B00072B65D4A1368002BFCD0BFF35F8F5B4BB1
:1008C0005B499A68030010339F00D5598D4239D097
:1008D000A5424AD0574EAA1B2F2A33D8012292464E
:1008E000824091464846544A12681040019048465A
:1008F000524A1060BFF35F8FEFF305829346002AE0
:1009000035D0934201D001F0D3FA2A0053469A43DE
:100910009068844208D175E04B005B189B00F31887
:100920009868A04234D01A00062151560029F3DA03
:10093000844253D0019B002B26D04A46404B1A607C
:100940003D4B1A60394B9B68DD51BFF35F8FBFF39E
:100950005F8F0022344B1A6088F3108803B0F0BC1C
:10096000BB46B246A946A046F0BD0D00EAE72A0004
:1009700053469A4390688442D6D1062010561300FD
:10098000002809DA0D0031E04A462C4B1A60D9E7FD
:1009900006201856002822DB42001118890074181E
:1009A0008A46A1689960E179D971062161569971E9
:1009B000002925DBA488F11A64052415544409197B
:1009C000E0240905490D24022143998013181D4A8A
:1009D0009B001178F31899711070ABE7130059461A
:1009E000002914D1FF3191711749918015490A7876
:1009F0009A71164A9B1B5B415A43120D0A7099E784
:100A00001349E2E70620105613000028C4DA114A01
:100A10001149D21A083A5002400D014399800F49FA
:100A200052080A43DA8085E7240100D000ED00E097
:100A3000CD0100103C0E002000E100E080E100E06C
:100A400080E200E0B11C002001BDFFFFAAAA000067
:100A500001BD0000760E002000F0FFFF00F8FFFF50
:100A600070B5EFF3058101240443EFF3108C72B6E7
:100A7000214A1368002BFCD0BFF35F8F1F4B05008A
:100A80001F4AED1A6D416A43120D1E4D8900AE6872
:100A900052B27658A6421CD00621595691421CD01B
:100AA00012215956914222D01E215956914220D0EE
:100AB0002A2159560324914210D0134B19781A70E9
:100AC0008171BFF35F8F00220B4B1A608CF310888B
:100AD00070BDAB680D4C5C50EFE700246100091954
:100AE00089005B18FF21997109499980E5E7012484
:100AF000F4E70224F2E7C046240100D03C0E0020B7
:100B0000AAAA000000ED00E0B11C0020CD010010F9
:100B100001BDFFFF054B064A1360064A1360536090
:100B20009360D360136153619361704780808080CC
:100B300000E400E004E400E010B5084B084C82B08B
:100B400001000093002205232000FFF7D1FC0028BC
:100B500001DB1F23181A02B010BDC046DC4F001085
:100B6000B61C0020024B9C4661448900016070471E
:100B70004000003410B50400FFF716FD010020000E
:100B8000FFF7F0FFFF232371BFF35F8F10BDC04657
:100B900010B50400FFF708FD01002000FFF7E2FF99
:100BA000FF23A380BFF35F8F10BDC04610B50400C4
:100BB0000120FFF705FD034BC3189B002360BFF323
:100BC0005F8F10BD40000034034B9C466144890098
:100BD0000160BFF35F8F70474000003483680B48AB
:100BE00010B58446614462441201090159189B18EA
:100BF0005C684A680120944201D802D00020C0B24B
:100C000010BD1A680B689A42F9D8F7E7FFFFFF0F8B
:100C10000A4B1968EFF3108072B60A68002AFCD0FC
:100C2000BFF35F8F1B68BFF35F8F00221A6080F3F2
:100C3000108840BF002000217047C046801C002063
:100C4000F8B5574645464E46DE46E0B598460CABED
:100C50001C780DAB1B78070091469A460568002C5E
:100C60005ED1AC7B002C3BD0660029683619033E70
:100C700089194B78AB73002B00D1EB7300238B7079
:100C80004B700B702D4BE218BB6812019B184A4643
:100C90001A6042465A600A9A9A600B9ADA600023F8
:100CA0008B704B700B706B7B9B46002B2BD0220004
:100CB0005946A8686B6898472A68002816D05B4692
:100CC00058465B005B449619033BB070D118D35C67
:100CD000002B00D073705B460C706B735C4513D0B7
:100CE000F0BCBB46B246A946A046F8BD5B465B00D9
:100CF0005B44033BD3189C709119925D002A00D08D
:100D00005A705B460B706C734A464346387D00F060
:100D1000B5FB051E0AD10E9B002BE1D01D70DFE74D
:100D2000660029683619033E8919ABE75346002B44
:100D3000F1D12100386800F0C5FDECE7FFFFFF0F9F
:100D4000F0B5DE4657464E4645460023E0B58BB02B
:100D50000893684B8200D45800239B46099000F00A
:100D60002DFB02000B006068EFF3108A72B6564646
:100D700001680029FCD0B246BFF35F8F21684F7B2A
:100D80008C46002F2ED0A5685B49A9467918090129
:100D9000894449460868496805000E00AD1A9E411D
:100DA000002E5FDD02000B00099800F067FB0023B6
:100DB0000022994600230692079300239846636811
:100DC000BFF35F8F5A461A608AF310884346002BA0
:100DD00012D10028C3D10BB0F0BCBB46B246A94625
:100DE000A046F0BD002300229946002306920793F7
:100DF000002300209846E2E7089B49461802384342
:100E0000C047626805000E00EFF3108A72B61368DF
:100E1000002BFCD0BFF35F8F002E41DB2B00334350
:100E200002D02369002B56D12368D97B002905D035
:100E30001A68480041185218033A57709A7B002AE2
:100E400000D19F73DF73E268013FD35D0133D35557
:100E50005B4623616368BFF35F8F5A461A608AF36B
:100E600010887CE7002E02D1002D00D09AE70021E7
:100E7000604600F0A5FC4B461A685B680692079333
:100E80004B469B6898464B46DB689946E368DB19FE
:100E9000013B1B7808931B020343236100208EE76C
:100EA0002369002BC0D0069A079B8021521BB341B7
:100EB00009068B4202D30122104B524200210491B9
:100EC000013103914946019141462000029700916A
:100ED000FFF7B6FEBCE700F071FA2A0033001218E3
:100EE0004B41802109068B42E8D30122034B524239
:100EF000E4E7C046641C0020FFFFFF0FFFFFFF7FF9
:100F000010B5144C6368002B04D00A211248FFF777
:100F100029FE10BD2300114A1021206800F066FB55
:100F2000032000F03FFA032000F010FB03200C49DF
:100F300000F05EFAFFF738FB0A4B9C46032323754B
:100F4000D0231B061B6860446375074B80006060FC
:100F5000DC60DAE7840E0020801C0020DD0B00102E
:100F6000410D001040000034641C00200048704710
:100F7000840E0020F0B557464E464546DE46E0B5A5
:100F800085B0019310AB1B780600039300239A46AB
:100F9000984600927268EFF3108B72B61368002BBC
:100FA000FCD0BFF35F8F3568AC7B002C00D16FE0C5
:100FB00067002B683F19033FDB195A78AA73002A90
:100FC00000D1EA734B4AA118B2680901521800987F
:100FD0000199106051600E9991600F99D16042465D
:100FE0009A705A701A706B7B9946002B00D170E092
:100FF00022004946A8686B6898472A6800285BD099
:101000004B4648465B004B44D719033BB870D11898
:10101000D35C002B00D07B704B460C706B734C453F
:1010200058D0F3681B19013B18787368BFF35F8FC2
:1010300042461A608BF310885346002B08D10002F9
:10104000204305B0F0BCBB46B246A946A046F0BD61
:10105000039B002B4BD00E9B00200F999847030059
:1010600004000D000B4342D000291ADA009A019BBC
:10107000121BAB410092019380221206934204D3CB
:1010800001231D4C5B4200930194039B9A4681E728
:101090007368BFF35F8F1C608BF3108801204042A0
:1010A000CFE700F08BF9802224184D4112060094FE
:1010B00001959542E9D3E3E74B465B004B44033B84
:1010C000D3189C70D119D25D002A00D05A704B46BB
:1010D0000B706C73307D009A019B00F0CFF9824653
:1010E00000289ED02100306800F0ECFB99E700203A
:1010F000A7E7C046FFFFFF0FFFFFFF7F407D704760
:10110000F0B504000D0006267642F717C6463619DC
:101110006F4100B584B08F4214D811D000F04EF961
:1011200032003B00121A8B41002B15DC002B3ED005
:101130002000290000F04CF904B080BCB846F0BD96
:101140008642EBD90026002700F038F932003B0038
:10115000121A8B41002BE9DD002302930193154BFA
:101160003200009314483B00FFF704FF0028DFDB48
:1011700000239846BC46114A114F7B6A9C4504D80F
:10118000B96AB142D4D29C45D2D11168EFF3108034
:1011900072B60B68002BFCD0BFF35F8F1368BFF3F0
:1011A0005F8F4146196080F3108820BFE5E7002A71
:1011B000BED0D1E7110C0010840E0020801C00204E
:1011C0000040054070B5060000F0F8F8FA2204006F
:1011D0000D00002330000021920001F037FA802337
:1011E000001969411B06994202D30120024940427D
:1011F000FFF786FF70BDC046FFFFFF7FF0B5EFF33E
:101200000583CE46474680B505000C0085B0002B0F
:101210000DD0324A0020536A9C4203D8926A0130B2
:10122000AA4232D305B0C0BCB946B046F0BD2C4E80
:10123000029301932B4B0200009330000B00FFF749
:1012400099FE031EE5DD20BF7168EFF3108772B6CB
:101250000A68002AFCD0BFF35F8FDAB29446306888
:10126000427B624516D0FF2201681A408946510030
:1012700088464946904441440339897800290BD176
:101280003269934210D131610EE0E31A5A1E934144
:10129000D8B2C7E7FF221A40F1681B0A8A18013A40
:1012A0001278DBB29A4214D07368BFF35F8F0022CA
:1012B0001A6087F31088094B00205A6A9442B1D80B
:1012C0009B6A0130AB42ADD2A41A631E9C41E0B2CE
:1012D000A8E7614600F0F6FAE6E7C04600400540A0
:1012E000840E0020110C0010F0B5EFF30582D646F5
:1012F0004F4646461000C0B51038EFF3108872B65E
:10130000214C2368002BFCD0BFF35F8F0123190011
:1013100081401E4D1F006963AA461D4D29601D4D69
:101320002E78AC463500C5402F402B4215D0534691
:101330005F6A194B8500EB589F4218D36246174BE2
:101340008E43EB581670BFF35F8F0022226088F344
:101350001088002B06D0984704E0BFF35F8F27600A
:1013600088F31088E0BCBA46B146A846F0BD0C4BE5
:1013700092009C46624413681360BFF35F8F0023A2
:10138000236088F31088EDE7280100D00040054075
:101390003C700540B51C00208C1C0020C0160020AD
:1013A000D03F054010B5034B01001800024AFFF77B
:1013B0007DF810BDB01C0020F84F0010034B596A97
:1013C0000A00986A596A8A42FAD17047004005407B
:1013D000064A536A9942FCD807D1044B02E05A6A84
:1013E000914202D19A6A8242F9D370470040054087
:1013F00070B504000D00EFF3108672B61A4A136838
:10140000002BFCD0BFF35F8F002D1BD02000FFF717
:1014100019F9164981420AD02000FFF71BF9012172
:101420002000FFF7DFF80123A340114A1360114B9E
:10143000A400E550BFF35F8F00220B4B1A6086F3C8
:10144000108870BD0121A1400A4BA200D5500A4B63
:1014500020001A788A4305491A70FFF71FFA002105
:101460002000FFF7BFF8E5E7280100D0E9120010DF
:1014700038600540C0160020B51C0020F0B54F466E
:10148000D6464646C0B507002B4C616A0D00A66AD9
:10149000616AA942FAD18B4208D805D00120E0BC8C
:1014A000BA46B146A846F0BDB242F7D9EFF3108A6A
:1014B00072B6224801680029FCD0BFF35F8F012576
:1014C000BD401F491C4C8846097889462943C9B24A
:1014D0008C46414660460870391D890065630A5193
:1014E0001849B8004350216A0020294219D0616A86
:1014F0000800A66A616A8142FAD18B4219D801D1EB
:10150000B24216D8CC450BD00B4B1F221D625D6337
:1015100001233A4093400C4A136043464A461A70EE
:101520000120BFF35F8F0022044B1A608AF31088FA
:10153000B5E70020F5E7C04600400540280100D08F
:10154000B51C00208C1C002080E200E0EFF3108C22
:1015500072B60A490B68002BFCD0BFF35F8F0123E2
:101560008340074A0748136202789A430270BFF328
:101570005F8F00230B608CF310887047280100D028
:1015800000400540B51C002070B505000E00140099
:10159000002923D0002A12D080686B6898472968F8
:1015A00000280ED063001B197200033B9219CB1860
:1015B000033A9E7088188A5C002A11D104703000AA
:1015C00070BD73009B196200033B1219CB18033ADC
:1015D0009C7088188A5C002A05D106702000EFE70D
:1015E0005A700470EBE75A700670F7E730B5836005
:1015F0000023CCB243730133047342608373C4731A
:101600000D000068012C06D9421C0133DBB21370B7
:1016100003329C42F9D1FF2129404B005B18C018CE
:1016200000230338437030BD70B505000C1E07D091
:10163000630001681B19033BCB185A78002A01D1BB
:10164000200070BD500080180338091800204E7823
:101650004870210058702800FFF796FF3100040001
:101660002800FFF7E1FF0600002C26D00028E7D075
:1016700021003200A8686B689847296800280ED0BE
:1016800073009B196200033B1219CB18033A9C703C
:1016900088188A5C002A00D05A700670D0E7630070
:1016A0001B197200033B9219CB18033A9E708818DD
:1016B0008A5C002A00D05A7004703400C0E7C0462B
:1016C000F0B557464546DE464E46E0B50D006F0084
:1016D00001687F19033F0400C85D83B00192CA19F5
:1016E000002850D043001B18033BCB185E78B4464B
:1016F000002E1AD1019E002E42D0E67B002E04D08F
:1017000073009B19CB18033B5D70A37B002B00D1AA
:10171000A573E57300282FD10023537003B0F0BCEC
:10172000BB46B246A946A046F0BD72006244033AE9
:101730008A185178884600215170894659703200C4
:1017400001002000FFF720FF43468246002B07D010
:101750005B0021684344033BCB185A78002A16D11A
:10176000424651462000FFF70FFF2168019BCA192E
:10177000002BC2D10028CFD043001B18033BCB184D
:1017800000219970C8E7019B002BB6D1C4E7500037
:1017900080180338091848788346484648705870BE
:1017A00041462000FFF7F0FE594680462000FFF733
:1017B0003BFF414602002000FFF7E6FE8046CFE7F0
:1017C000F0B557464546DE464E46E0B583B001913A
:1017D000457B04006F0000687F19033FC15DC2199B
:1017E000002952D04B005B18033BC3185E78B44607
:1017F000002E1CD1019E002E44D0E67B002E04D08A
:1018000073009B19C318033B5D70A37B002B00D1B1
:10181000A573E573002931D100232800537061734B
:1018200003B0F0BCBB46B246A946A046F0BD72006C
:101830006244033A821850788046002050708146F6
:10184000587032002000FFF79FFE43468246002B6F
:1018500007D05B0021684344033BCB185A78002A29
:1018600017D1424651462000FFF78EFE019B010032
:101870002068C219002BC0D10029CDD04B005B18C5
:10188000033BC31800209870C6E7019B002BB4D11E
:10189000C2E7500080180338091848788346484644
:1018A0004870587041462000FFF76EFE594680464A
:1018B0002000FFF7B9FE414602002000FFF764FE5A
:1018C0008046CEE770B5050000292CD0437B8B42C3
:1018D0002ED04C0000686418033C0419A278002A3A
:1018E00021D053009B18033BC25CC6188A4202D128
:1018F0001BE0002A08D053009B18033BC3185A78FA
:101900008A42F6D162785A70002301222800A3701F
:101910006370FFF7D5FE697B02002800FFF734FEF5
:101920006873012000E0002070BD63783370EBE73E
:1019300001221900FFF7C4FEF2E7C04610B50C20E3
:1019400082B000F0B5F9FEF7A9FD002810D08B4B4E
:101950008B488B498B4A186059609860D960186130
:1019600059619861D961186259625A6202B010BD1A
:10197000854CA06700F0F2F90122844B1A60636C79
:10198000012BFCD10322824B1A607F4A936B012BFF
:10199000FCD1013301217F4A7F480093043300F0DA
:1019A00037F905237D4A009301217D4800F030F985
:1019B0007C4B5A68FF2A02D8802252005A6080224B
:1019C000734B6E4C12011A602169002907D06069BF
:1019D00000F0CEFA013043001B18033BFDD2E02299
:1019E000704B714819680A40026002221968514020
:1019F00001320A40042102609A681142FCD0802121
:101A00006A4A09011160802252005A60684B2361C2
:101A1000684B5968FF2900D85A60032201215B4BAB
:101A20001A60644A93681942FCD0E02310680340AE
:101A300061480360126803234A40022113405D4A53
:101A4000036093681942FCD080215C4B0901196046
:101A500080215B4B4900516063615A4B5A68FF2AF1
:101A600000D859608022584B12011A60E1690029A0
:101A700007D0606900F07CFA013043001B18033B7B
:101A8000FDD2E0234F4A11680B4050490B60802182
:101A90004F4B090119608021394B49005160E361C6
:101AA0004C4B5A68FF2A00D8596080224A4B1201D9
:101AB0001A60216A002907D0606900F059FA0130E4
:101AC00043001B18033BFDD2E023424A11680B4040
:101AD00042490B608021424B0901196080235B0061
:101AE00053608022264BD20223623E4B59689142BA
:101AF00000D25A6080223C4B12011A60616A0029B0
:101B000007D0606900F034FA013043001B18033B32
:101B1000FDD2E023334A11680B4034490B60802129
:101B2000334B090119608023DB025360154B63625C
:101B3000304B5A68FF2A02D8802252005A60802215
:101B40002D4B12011A60A169002907D0606900F0CD
:101B50000FFA013043001B18033BFDD2E023254A56
:101B600011680B4025490B608021254B0901196044
:101B700080235B005360124BA361F7E6300F002017
:101B8000006CDC021BB70000008000403CB000404D
:101B900030B00040002F685900800240008C86471A
:101BA00000C00240308000403090004030A0004033
:101BB000001BB7003C8000403C9000403CA000402F
:101BC000405973075480004054B000405490004086
:101BD00054A000406080004060B000406090004031
:101BE00060A000406C8000406CB000406C900040F1
:101BF0006CA000404880004048B000404890004041
:101C000048A00040014B8000C0587047300F0020B2
:101C1000F8B5040021481D0017000E0000F0A8F9D7
:101C20000100380000F0A4F9069B29041B031943A6
:101C30002368002B20DB1A4B1A4DE21853425A41FD
:101C400080235B019C461203174B62441A60174BBA
:101C50001A601700AB689F43FBD1C022231D92017D
:101C60001A4321232660A06013602368002BFCDA4E
:101C70000823E1601360F8BD3F2322681340B3429C
:101C8000D9D1A3681B051B0D8342D4D1EE22E36892
:101C9000D20213408B42CED1EDE7C046001BB70005
:101CA0000040FDBF00C0004000E0004000F00040E8
:101CB0008023024A9B000343D362704700800540A3
:101CC00010B580241C4BE4051C6000281AD00123A9
:101CD0001A4C18431A4BDC611A4C44401C6259627E
:101CE00098628021144BC90519601748174908608C
:101CF000E021C9041960002A07D18022144B120682
:101D00001A6010BD0E4BD861EBE753019B1A9B0084
:101D10009A18802312015B049A4209D213000D49DC
:101D20000B60074B5A608022094BD2051A60E8E726
:101D3000094B1A00F3E7C04600B00540D3C007B016
:101D4000008005402D3FF84FFCFF010008200140B6
:101D500000A00540541C0020FFFFFF00AA23064AF4
:101D60001B0113602F230549D360054B196053688D
:101D7000002BFCDA7047C0460040024000B0FA0079
:101D8000006002402C4B2D4A70B51A602C4A2D4B36
:101D90002D491A6014008B689C43FBD12B4D2C4EAF
:101DA000B54208D2013E761BB60808CD98472300FD
:101DB0000134B342F9D1FFF7C1FD264A214B1A6025
:101DC000214A9368DB43DB01DD09002BF9D1402276
:101DD000214B224C224E9A675A671A67DA66B44240
:101DE00008D223682000002B20D00834FEF7D0FE54
:101DF000B442F6D31B4C1C4EC022B168200000F048
:101E0000FDFCB460FEF7C2FBFEF784FEFFF778F836
:101E1000164C174EB44208D2013E361BB60808CC09
:101E200098472B0001359E42F9D170BD0834FEF76A
:101E3000A1FEB442D5D3DDE700E00040BFCDFBFEFC
:101E4000FE7F3C0000F0004000C00040180F002062
:101E5000280F0020FFFFFF0100F00140100F0020BD
:101E6000180F00200000002000ED00E0280F0020E7
:101E7000300F002000BEFDE710B5FFF7FBFFC046A6
:101E80000FB400B5084883B000F068FD049B002B38
:101E900007D005A91800019100F018F8034800F0D8
:101EA0005DFD0120FFF7E6FF1C5000102C500010D4
:101EB00010B50148FFF7E4FF3050001010B50028BE
:101EC00000D110BD00F0FEFCFBE7C04610B5094A8A
:101ED0000300146884B0002C08D001220091064849
:101EE000524203A9A047012004B010BD00F036FD06
:101EF0000020F9E7501C0020BD1E001001480421FD
:101F0000014B1847B00E00202D1F0010142310B5F0
:101F10000100188804331B88984710BD162310B59C
:101F20000100188802331B88984710BDF8B5474652
:101F3000CE4680B50F1E19D01423994604330400F1
:101F40000025012698464B461888434621681B8881
:101F5000984701C4431E9841013540420640AF42B4
:101F6000F1D13000C0BCB946B046F8BD0126F8E753
:101F7000114A936F9B0813D210665166002905D051
:101F8000FFE7FFE7FFE7516F106F704704B50028C8
:101F900001D00020C04302F0CBFF002104BDC046A9
:101FA000F0B5146E556E576F166FFFF7E5FF1466A8
:101FB000556657671667F0BD000000D048404140A5
:101FC000484018B41B4B5B68FC46019308BD04DF16
:101FD0001F21001018B4174B1B68FC46019308BD65
:101FE00000DF292100109446134A926F920809D20B
:101FF000624618B40F4BDB68FC46019308BD0CDF4A
:10200000E12300100C4AF0B5146E556E576F166F31
:102010006246FFF7EEFF084A146655665767166773
:10202000F0BD18B4034B9B68FC46019308BD08DF64
:102030008522001060100020000000D018B4044B6E
:102040005B6AFC46019308BD24DF91250010000067
:1020500060100020132370B51D78012D15D010DD00
:102060001D48FFF75BFF1D4C01008022200000F09F
:10207000C5FB022D2DD01A48FFF748FF194B1860F9
:1020800070BD194B154CA364F5E7174B134C236037
:102090006360A360E36023616361A361E361236222
:1020A0006362A362E36223636363A363E363236402
:1020B0006364A364E36423656365A365E3652366E2
:1020C0006366A366E36623676367A367E367A36446
:1020D000D1E7054BA364CEE7534400006010002015
:1020E0004C3300007C1C0020ED20001007B560463A
:1020F00001880A0A0230DF2AFAD1C9B2820804D361
:10210000028840880004104300E00068014A5050F3
:10211000039007BD601000200FB403BC0CBCF0B5E9
:102120000124E407634000E0F0B50C0DCF0F661EFC
:102130003605891B640503D3C943404200D30131EE
:10214000640D03D0661CF60A07D0E41B00207F0054
:10215000791C89078912803C24031D0DDF0F6E1E38
:1021600036059B1B6D0503D3DB43524200D301337D
:102170006D0D03D06E1CF60A07D0ED1B00227F0008
:102180007B1C9B079B12803D2D032F1B661B58D485
:10219000A446202E46DA20371400BC401D00BD4066
:1021A000F24033412A4380185941CB0F05D0C9432F
:1021B000C043002264425041514162464D0D28D136
:1021C0000D0D07D100281FD0241940414941013A83
:1021D0000D0DF9D0640006D3013000D30131002C7D
:1021E00001D140084000013A0BD4941CE40A04D108
:1021F00012051144DB071944F0BDD907204B1943E0
:1022000000E0D9070020F0BD0029DDD1002CDBD192
:10221000F0BD0132C6074008CD0728434908002E0B
:10222000E1D0D9E73C2E29DA203E40371400BC40EB
:1022300000D00124F24014431A00BB401C43D317C2
:10224000ACE7AC46202F08DA20360400B4400D007D
:10225000B540F84039412843A5E73C2F0CDA203F30
:1022600040360400B44000D00124F8400443080084
:10227000B1400C43C117EAE710001900002494E7AD
:102280000000F07FF0B50C0D661E3605891BE60ACE
:102290006405640D02D0651CED0A04D00020012104
:1022A0000905803C2403A4461C0D671E3F05DB1B6B
:1022B000E70A6405640D02D0651CED0A04D0002213
:1022C00001231B05803C24037740644497B484B207
:1022D00096B27443070C7E43150C6F4380B268437B
:1022E000361802D3012000043F183004350C0019C1
:1022F0007D41844688B29AB250430C0C62431F0C55
:102300007C438EB27E43921902D301263604A4196F
:102310001604170C3618674101BC81B29AB25143BA
:10232000040C62431B0C5C4380B25843121802D366
:102330000120000424181004130C401863412D18C8
:102340005E410020474106BC88B293B258430C0C52
:102350006343120C544389B251435B1802D30121E9
:102360000904641819041A0C091862416D185641C1
:102370000020474118BCF902720D1143F0026A0DAA
:102380001043ED020A0D03D16D1940414941013B53
:10239000124E9B1B7600B3420ED26D0007D3013064
:1023A000002671416646354301D1400840001B05B7
:1023B000C918E4072144F0BD0BDA013306D101301E
:1023C00004D101314F0D01D04908F2E7E1070020A7
:1023D000F0BD013631050020EBE70000FF030000EF
:1023E000F0B51C0D671E3F05DB1BE70A6405640D95
:1023F00002D0661CF60A04D0002201231B05803C93
:102400002403D0252D060026F6432E661E096E668F
:10241000CE0FF619B44649004F0D02D07E1CF60AC5
:1024200003D000200021403F3F033E1BB600B444D0
:10243000013F7F05C91B49082E6F013676089C02B3
:10244000950D25437543ED137543AD1301356D109F
:10245000F603761B0CB4CC02450D2C43A2B2B3B2EA
:102460005A43270C7B43350C6F43A4B26C431B19B2
:1024700002D3012424043F191C041D0CA4187D411F
:1024800024196D41009A91B2ACB26143170C7C43A0
:102490002B0C5F4392B25A43A41802D301221204B8
:1024A000BF182204230C52187B41019C6C431B195A
:1024B000520ED9010A434401A01A81B2B2B251436B
:1024C00003145A43360C734387B27743D617D21995
:1024D00000277E4136049B191704160C7F185E41B5
:1024E0007316ED18F301002680337541A90F06D14C
:1024F0006400690AE8055B0A184309D22FE0042248
:10250000944480337541A90AA8059B0A184326D331
:10251000404149412404009A019B0D005543641B2E
:102520004343E41A95B286B27543170C7E43030CFD
:102530005F4392B25A43B61802D301221204BF1865
:102540003204330C52197B4152429C41002C02D47C
:102550000022013051414008CA071043490802B027
:102560006246D7079210084BD218084B9A4203D202
:1025700012058918C919F0BD0020002A01DC3900B4
:10258000F0BD01331905F5E7FD030000FE0700006B
:10259000002200B5203200F004F8080000BD000061
:1025A00000220B150AD410B5944600F031F814142B
:1025B000013400DA0021CB17144C20470020002101
:1025C00070476244343A0CD40C2A07DA0400914074
:1025D000904052422032D440214310BDD843D943C9
:1025E00010BD203207D40C46944052422032114193
:1025F000D040204310BD0800C917203203D45242F6
:102600002032104110BD1800190010BDC325001064
:102610000A0DCC0F531E1B05C91A520503D3C9431B
:10262000404200D30131520D03D0531CDB0A07D0C6
:10263000121B00206400611C89078912803A120372
:10264000014BD21A70470000FF030000514343437F
:10265000C9188C46110C83B24B4310B4040C61436F
:1026600092B280B2504362431C041B0C001910BC90
:1026700059411304120CC0185141614470470000C5
:102680004840414048400E4B5B6818470C4B1B6864
:1026900018470C4A936F9B0802D2094BDB68184716
:1026A000F0B5146E556E576F166FFFF7F6FF054ABB
:1026B0001466556657671667F0BD014B9B6818474F
:1026C00060110020000000D0C10FC90700D54042B2
:1026D000002817D0F44603B40B4B1B68984706BC80
:1026E00081409E384042803107D20B0607D0490016
:1026F000490AC0051043084360470130F8E7490A1A
:102700008902F5E7704700007C1C0020034BDB6F5B
:10271000FC4618477CDFB127001000006011002044
:10272000132310B512481C78FFF7F8FB0100012CA9
:102730000AD003DD80220F4800F060F80E48FFF752
:10274000E5FB0E4B186010BD0A4C5422200000F02F
:1027500055F80B4B6365A365E36523666366A36663
:10276000E36623676367A367E3672362E361E5E7E3
:1027700053460000601100204C3300007C1C0020F8
:102780008527001007B5604601880A0A0230DF2A53
:10279000FAD1C9B2820804D30288408800041043E9
:1027A00000E00068014A5050039007BD601100200E
:1027B000C30FDB0741000A0E07D0FF2A08D0090922
:1027C000054A8918194340077047190000207047CF
:1027D0000249C918FAE70000000000380000F07F45
:1027E00001480421014B1847C00E00202D1F001086
:1027F000014B1B6818470000C00E0020014B5B68AE
:1028000018470000C00E0020F0B546464F46D64699
:10281000C0B5437D80460E001700002B4BD0002A28
:1028200032DD274B01259A464B1E00240020994695
:1028300007E0335D0A2B2CD02B0001340135BB425D
:1028400013DA002CF5D133780A2BF5D143461B7DE2
:10285000002BF1D14346504602211B6898472800BF
:102860002B0001340135BB42EBDB874204DD4346DC
:10287000391A1B6830189847F619013E33780D3B1A
:102880005A42534142461375E0BCBA46B146A84687
:10289000F0BD4B461B5D0D2BCED0A042DADA43468D
:1028A000211A1B68301898474346504602211B687E
:1028B00098472800D4E70368110030009847E3E701
:1028C00010510010F0B5CE46474680B583B06B4638
:1028D0000600DD1D2870FEF771FD00231A4A12184C
:1028E0004B41802109068B4202D30122174B5242F1
:1028F00017490800884602F03BFB164B81461C68CE
:10290000002C14D0144F02E02469002C0FD023684F
:10291000002BF9D03B68002B01D0A342F4D120005A
:1029200001222900FFF770FF2469002CEFD14B46EC
:10293000002B05D1300003B0C0BCB946B046F0BD95
:10294000404602F0E5FAF5E740420F00FFFFFF7F47
:10295000100F0020441800204C180020F0B5DE466F
:1029600057464E464546E0B585B0070002F096FA58
:102970000600FEF723FD00232B4A12184B4180214D
:1029800009068B4202D30122284B524228490800F3
:102990008B4602F0EDFA274B01901C689A46002CFA
:1029A0003BD0254B984602ABDD1D0A23994602E039
:1029B0002469002C17D02368002BF9D043461B68EC
:1029C000002B01D0A342F3D1200032003900FFF7E1
:1029D0001BFF4B462000012229002B70FFF714FF3C
:1029E0002469002CE7D1019B002B18D153461C68A9
:1029F000002C06D06368002B0BD098472469002C6C
:102A0000F8D1300005B0F0BCBB46B246A946A0469E
:102A1000F0BD2469002CEDD1F3E70028F1D0584631
:102A200002F076FAE2E7C04640420F00FFFFFF7F68
:102A3000100F0020441800204C1800200A4A136888
:102A4000002B05D10CE01A001B691032002B07D0B7
:102A50009842F8D1002902D10369136001617047DF
:102A60000029FCD01060FAE74418002010B500F0EF
:102A7000D9F910BD7047C0460022014B1A7070474B
:102A8000B21C00204B790020FF2B0BD18B79002B3F
:102A900008D1CB79012B05D1082A03D9024B8A78BA
:102AA00009301A707047C046B21C002001207047E0
:102AB00070B5012901D0012070BD134953791079F7
:102AC00009781B02034300209942F5D15378012B6A
:102AD00008D0022BF0D1002064220021FFF7F0F88B
:102AE0000120E9E79478D278050012021443D20558
:102AF00002D5620A93401D000448FFF707FA7F21C0
:102B00000300214028009847B21C002055420000D5
:102B10000123037000487047145100104B780A7865
:102B20001B0213438A7810B512041A43CB781B0694
:102B300013439622D200934200D010BD0348FFF702
:102B4000E5F90021030008009847C04655420000FF
:102B5000024B1860024B19607047C046D017002026
:102B6000D417002010B5024B1878FDF74DFD10BDAD
:102B7000B31C0020114B70B51A68002A1AD0EFF36D
:102B8000108172B610680028FCD0BFF35F8F002060
:102B90000B4A596010701B68BFF35F8F186081F398
:102BA000108800240025074B1878FDF72DFD29001B
:102BB000200070BDFA240025A400F4E75C1C00206E
:102BC000B41C0020B31C002070B5040000200E00CF
:102BD00001F016FB002836D0002001F029FB002868
:102BE00031D0FEF7EBFB0023184A12184B4180212D
:102BF00009068B4216D2164D280002F0B9F90028BA
:102C000021D0002001F0FCFA00280FD10120002182
:102C1000404200F0C3FC03246442280002F078F92B
:102C2000200070BD01220B4B5242E4E7002001F06E
:102C3000FFFA0028EAD021003200002001F004FB56
:102C4000041EEAD1E7E703246442E9E740420F00AB
:102C5000841C0020FFFFFF7FF8B5DE46574680B595
:102C600005000C00FEF7AAFB0023374A12184B415F
:102C7000802109068B4202D30122344B524234494F
:102C800008008A4602F074F9002803D1C0BCBB4694
:102C9000B246F8BD002001F0B3FA00284AD0002661
:102CA000002C43DD2B4B9B4614E0A919002001F0BA
:102CB0003FFB070001200021404200F06FFC002094
:102CC00001F0FAFAFEF77AFB224BF6191860596008
:102CD000B4422BDD002001F045FBA71B0200B842E7
:102CE00000DD3A00002AE0D101200021404200F03E
:102CF00055FC002001F0E0FA002001F081FA0028E4
:102D000014D0002001F02EFB0028E1D1FEF756FB85
:102D10005B460F001A685B68002184460E48121853
:102D20004B419F4202D8D3D19445D1D9504602F0AD
:102D3000EFF8ABE700200021064B186059605046C1
:102D400002F0E6F8A2E7C04640420F00FFFFFF7F17
:102D5000841C00205810002020A1070010B5244C2E
:102D600084B00021200002F0EBF800281CD1214B98
:102D70001A68002A16D0EFF3108172B61068002886
:102D8000FCD0BFF35F8F01241B48596002781B6899
:102D9000D2B20470BFF35F8F0020186081F31088F7
:102DA000002A0AD004B010BD01200021404200F0EA
:102DB000F5FB200002F0ACF8F4E7FEF7D7F80400CA
:102DC000FEF7FCFAFA220023920012184B418021F0
:102DD00009068B4202D30122084B52420121029183
:102DE00000210191064920000091FEF7C3F8D9E7C0
:102DF000841C00205C1C0020B41C0020FFFFFF7F0F
:102E0000752B0010054B10B51868002804D0044B32
:102E10000022196801F064F810BDC046D0170020E8
:102E2000D4170020D02310B51B0684B01C68FEF711
:102E30009DF8FEF763F9A04202D0002004B010BD57
:102E4000274B1B7801F070FC2648FDF793FE01200C
:102E5000FDF772FEFF23244C244920701840FDF733
:102E6000F9FB20780121FDF7BDFB0520FDF7D4FB20
:102E7000002827D1FEF77AF80400FEF79FFAFA221D
:102E80000023920012184B41802109068B4202D385
:102E90000122174B52420121029100210191154953
:102EA00020000091FEF766F8082204000021124875
:102EB000FFF79EFC002CC0DB10480121FFF7BEFD90
:102EC0000120BBE700220E490520FDF7EDFBFDF7D1
:102ED0006BFB094B01001800FDF776FEECE7C046DE
:102EE00024530010841C0020B31C00205D2D001012
:102EF000FFFFFF7F752B00105C1C0020D00E002010
:102F0000652B001000487047E451001000487047DE
:102F10009051001010B5040017480378002B20D002
:102F2000002C06D1154B16484380063BFF3B03801F
:102F300010BD052C19D8134BA400E05812490023EA
:102F400004E001330A800231132B10D0C25C002A46
:102F5000F7D1C0220133DBB25B0092000848134373
:102F6000E5E7112100F01AF8DAE70020E0E7CA23CC
:102F700003489B00DBE7C0469C1C002009040000BE
:102F80001C180020785100101E18002010B50248AF
:102F900000F0D8F810BDC046741C002030B54B1EA0
:102FA000012900D1A7E0664A11780D112C003034B8
:102FB0009F2900D9A2E00470012B00D1BEE00F21AF
:102FC000147821400C003034092900D998E044706D
:102FD000022B00D1B2E054782511290030319F2C0A
:102FE00000D990E08170032B00D1A7E00F21214090
:102FF0000C003034092900D987E0C470042B00D1BB
:103000009CE094782511290030319F2C00D97FE075
:103010000171052B00D191E00F2121400C003034CB
:10302000092900D976E04471062B00D186E0D478D6
:103030002511290030319F2C00D96EE08171072BBA
:1030400000D17BE00F2121400C003034092966D8E3
:10305000C471082B00D171E0147925112900303199
:103060009F2C5FD80172092B68D00F2121400C00E2
:103070003034092958D844720A2B5FD0547925116D
:10308000290030319F2C52D881720B2B56D00F2142
:1030900021400C00303409294BD8C4720C2B4DD080
:1030A00094792511290030319F2C00D90731017303
:1030B0000D2B43D00F2121400C003034092901D9B8
:1030C00037310C0044730E2B38D0D1790C1122000B
:1030D00030329F2900D9073282730F2B2ED00F2256
:1030E0000A4011003731092A01D830321100C1736A
:1030F000102B23D010300023037030BD07345AE763
:1031000037310C0063E707316CE737310C0074E7A7
:1031100007317DE737310C0085E707318EE737311E
:103120000C0095E707319DE737310C00A3E7073125
:10313000AAE737310C00C4720C2BB1D1C018DAE702
:10314000741C002030B5002589B00400092200213C
:1031500001A80095FFF74CFB0922002105A8049562
:10316000FFF746FB4B236A466846137004A90D22FD
:1031700001F0C6FE1521082220006944FFF73EFB3E
:1031800009B030BD10B501210520FDF72BFA10BDA7
:1031900010B500220021024800F05AF910BDC046C7
:1031A000701800208022024B5202DA647047C04639
:1031B00000201150F0B5C64600B5060000F022F917
:1031C0000C231B4DFF22AB6705201A49FDF76CFA53
:1031D00040239846184C402200212000FFF708FBAE
:1031E00043460127238321210023144A6770A260EC
:1031F000136063545F31618441462187053963540C
:103200000F4A10496360E260A1620B606362E26290
:1032100001F0C6FE80239B052F64EB6490230A4ACD
:103220003000EA50FFF7BEFF80BCB846F0BDC04694
:10323000000011509D040020501800208400105000
:10324000000110508000105010D001000B785B0678
:1032500002D14B78052B00D070478A78014B1A6059
:10326000FAE7C04600001150F0B5C64600B5CC786C
:1032700088780A794B797F21A40701401B02C50990
:1032800013434F00A20F1400324E7A195201B218A4
:10329000907001206840507000205B055B0DD0707D
:1032A0001383D4768046CA00012D33D02A48844641
:1032B000880162448446B44460468260404610609F
:1032C000002933D0254AC9009046624641445160E6
:1032D0003F223F339343022C00D15B0020487A19F0
:1032E00001685201B218D1601E4ACB1803605140E8
:1032F0005A40802388465B019A4228D84346A40658
:103300001C4380237F197F01F61972681B06234333
:10331000136011E014488446880162448446B44432
:103320006046826240461060002909D100236D0189
:1033300075196B600D4BEB60012080BCB846F0BD89
:10334000084AC9009046624641445162C0E7FEF710
:10335000AFFDD3E750180020840010500400105037
:10336000581C002000001050800010500001105028
:1033700010B501F015FE10BD10B57F200C002040E7
:103380004000E409110000191A00034B4001C01865
:1033900000F05EF8012010BD501800207F231800B7
:1033A00010B508400B420BD0C90980224000074BE2
:1033B000401840010021C018120101F0F9FD10BDB4
:1033C0000223034AC9095B1A9366EEE750180020EE
:1033D000002011507F22130010B50B400A4200D18B
:1033E00010BDC9095B005B1804485B01C0180023CD
:1033F00000220349C37001F0DBFDF1E75018002003
:10340000FFF7FFFF80220D4B520410B51A600C4BE2
:103410000C491A6010008B689843FBD10A4C9C221F
:1034200000212000FFF7E4F9802200215201074823
:10343000FFF7DEF90923636710BDC04600E00040D6
:1034400000F0004000C0004000001150000010508B
:10345000002310B5C38201338282837601610400A8
:1034600001F096FD002804D080219023074A8902AC
:10347000D150200001F054FD002802D00123237711
:1034800010BD200001F07CFDFAE7C046002011507D
:10349000024B5878431E9841C0B27047A4150020D3
:1034A000024B18784007C00F7047C046A415002093
:1034B000034B1878FF38431E9841C0B27047C0468E
:1034C0000C0F0020F0B5C64600B52A4E0500337833
:1034D000FF2B01D001203FE0532200212648FFF7B7
:1034E00087F9264C2000FDF745FB254B1C60254C39
:1034F0002000143CFDF75AFB200001F0E3FB224BB7
:10350000224F1C60224B9846002B1DD03800FFF73D
:10351000FFFA204B18603B7842460024002A15D061
:103520001D4A904642469C4219D3904701343B784D
:10353000E4B2A342F6D228003570FFF73BFE280024
:10354000FFF720FE012007E03B78E5E700F016FFDB
:103550003B78002BEFD0002080BCB846F0BD0D4A70
:10356000630012681B19DB00D318002BF3D01A6814
:10357000DBE7C0460C0F0020A41500205C150020DE
:10358000F8150020040F0020FC150020AD1C0020C1
:10359000112B00107C1200207D430010F0B5DE4698
:1035A00057464E464546E0B591B001F0C3F80028B5
:1035B00000D115E1CA4BCB4E0193CB4B0DAC02931E
:1035C000CA4B9B4635686A69EFF3108172B613687F
:1035D000002BFCD0BFF35F8FA9612800210001F010
:1035E000B3F96A69AB69BFF35F8F0021116083F3A0
:1035F0001088002800D1F3E06378082BE2D8019A04
:103600009B00D3589F466368002BDBD0A068984787
:10361000D8E77F222179B44D0A405300C809EB183E
:103620001B18180001273030C578BD43C570C57818
:103630000337BD43C570002A00D1EEE0AC4ADB7C05
:10364000002A06D0AB4A1278934200D264E19B1A5A
:10365000DBB2002B00D0C3E0A74DA36862792078CD
:10366000A847AFE70122A04D01212B780420134386
:103670002B703323EA5C8A43EA54EA5C8243EA54BF
:103680000133EA5C8A43EA54EA5C8243EA542378D1
:1036900000209A4600F026FD602223791A40602A15
:1036A0000DD0402A00D1BEE0DB06DB0E012B00D19D
:1036B0003DE1022B00D1D3E0002B00D1C2E0207805
:1036C0000021FFF76BFE80212078FFF767FE79E786
:1036D000029B1B78DB0700D474E7884B002B00D1DA
:1036E00070E700E000BF6DE77F4D2B78DB0700D46B
:1036F00068E7834B002B00D164E728780007C00FF0
:1037000000E000BF5EE723787A4F794A98460025AB
:103710003B78002A49D0B1463E005F463A009D42C0
:1037200065D34046904701353378EDB2AB42F5D2D0
:103730004E46BB466C4D532200212800FFF758F837
:103740001022FF21E81CFFF753F828002022FF2158
:103750001330FFF74DF82EE02378664F644A984601
:1037600000253B78002A2FD0B1463E005F463A0044
:10377000AB4247D84046904701353378EDB2AB4273
:10378000F5D24E46BB46584D532200212800FFF784
:103790002FF81022FF21E81CFFF72AF8280020222A
:1037A000FF211330FFF724F815E0404600F024FE17
:1037B0003B78002BBED000F08BFC524B002B00D18D
:1037C00000E700E000BFFDE6404600F015FE3B7854
:1037D000002BD8D0444D00F07BFC2379AB70F1E690
:1037E00011B0F0BCBB46B246A946A046F0BD464A61
:1037F0006B0012685B19DB00D318002B00D1AEE11F
:103800005A688EE7404A6B0012685B19DB00D318D8
:10381000002B00D1A6E15A68ACE7A3686279207852
:1038200000F074FCCEE63948002800D147E700F0EC
:1038300059FC012150460EAA00E000BF002800D02C
:10384000C0E63CE7202A00D1A6E0002A00D036E7F7
:103850006379092B00D932E72D4A9B00D3589F4644
:103860007023217A0B4200D029E70F330B405B0015
:10387000CF09E818C019C07C039384461C4800286F
:1038800008D01C480078844500D2A8E06346181A86
:10389000C3B29C466046002800D09AE0002A00D0BF
:1038A00059E11C4B984663791A00994602239A43C2
:1038B000012A00D159E14B46002B00D0FFE6039BC3
:1038C0000CAAEB18DB193033DB7802329B07DB0FD5
:1038D0001380504602230EA900F0A4FB72E6C046F6
:1038E00060520010FC150020A4150020F9430010C0
:1038F000112B0010AD1C0020ED4500100000000051
:1039000000000000000000007C1200200000000009
:1039100084520010EC520010C04A58001268C318BC
:10392000DB00D318002B00D15AE71D6995E6237AF6
:103930000F2B00D9C3E6BA4AEB18DB78002A05D072
:10394000B84A1278934265D39B1ADBB2002B00D0A1
:10395000B5E6B548B54D00F0C5FB01215046EB6812
:103960000EAA9847002800D02CE660221500237983
:103970001D401A4200D0A2E663790A3B012B00D910
:103980009DE600F0AFFB63790A2B00D12FE1504692
:103990000EA900F031FB15E6237A0F2B00D98EE635
:1039A0009F4AEB18DB78002A06D09E4A1278934291
:1039B00000D2FDE09B1ADBB2002B00D07FE69A48D4
:1039C0009A4D00F08FFB01215046EB680EAA9847F4
:1039D00034E7002A00D072E60023984663E7634686
:1039E0005B009846C4446346DB009C468B480068F5
:1039F00060448046002A00D155E7002800D15EE6E9
:103A0000C06800F06FFB434601215046DB680EAAF8
:103A1000984713E7814A59001568CB18DB00ED1869
:103A2000002D00D14BE6E86895E7E388012B00D034
:103A300045E608222B78504693430EA92B7000F0E0
:103A4000DBFABFE5022029780CAB9A1C8B068908AB
:103A5000DB0F01400B433BE7A37999466B7899450F
:103A600007D06B78002B00D04AE14B46002B00D0EA
:103A7000E8E04B4650460EA96B7000F0BDFAA1E598
:103A80006B780CAA02321370504601230EA900F085
:103A9000C9FA97E5E3881A0AD8B20F2A00D90EE6C8
:103AA00063499300CB589F460EA800F021FB504677
:103AB000A179FFF76DFB02222B7813432B7081E570
:103AC000E388012B00D0FAE508222B7850461343F7
:103AD0000EA92B7000F090FA74E5564B002B00D124
:103AE000EDE500E000BF021E00D1E8E5D378917853
:103AF0001B020B4350460EA900F094FA9EE64E4B73
:103B0000002B00D1DBE500E000BF021E00D1D6E5AE
:103B1000504613780EA900F085FA8FE62189FFF749
:103B2000F9F9021EF4D1CAE5022A00D15FE1434B44
:103B3000002B00D1C3E500E000BF0200002A00D145
:103B4000BDE5D3E7FFF7DEF9122302000EA95046C8
:103B500000F068FA72E6354B3348984651E74E4616
:103B6000BB4628E64E46BB4634E6E288002A09D129
:103B70004B46012B27D0039BEB18DF193037FB781E
:103B80009B073DD54346002B00D11BE5D86800F0CC
:103B9000A9FA43460121DB680EAA50469847002047
:103BA00000F0A0FA3423EB5CDB0700D50AE5EEE673
:103BB0001A4A59001568CB18DB00ED18002D00D10A
:103BC0007DE5E868FDE6039BEB18DF193037FB78ED
:103BD0009B07D7D51A4B1878FFF7FCFB0222FB781E
:103BE00093434A46FB70FB789343FB70CAE70CABE8
:103BF0009A1C504601230EA9157000F013FAE1E457
:103C00000F4B1878FFF7CAFB0222FB7813430122FF
:103C1000FB70FB781343FB70B4E7C0467C120020B6
:103C2000112B0010AD1C002009450010EC520010B3
:103C3000AC52001000000000000000000000000076
:103C40000C0F0020581EC0B2FFF760F9002800D109
:103C500035E543780793022B00D030E50121C37985
:103C600007009A115B110A400B4052011B011343DC
:103C70002A782F318A4313432B70C37882781B0232
:103C80001343C3180693664BA8460593654B093743
:103C90000A934B46B1460B93069BBB4200D8AAE061
:103CA00001227B7803920B2B03D1FB7803933B78A3
:103CB000FF187B78042B21D10025069BDB1B9BB2D0
:103CC0000493059B1A780A9BAB424DD0564B089340
:103CD000564B0993089B099EAA427FD8390050464B
:103CE000049A98478446082802D9049A824247D207
:103CF000059B01351A78EDB2AA42EBD24E46DEE4BE
:103D00005046FFF735FBAB78454F464A03930021F9
:103D10003B78002A1FD0464A04922A000D009046A4
:103D2000049A9D4250D35046904701353B78EDB2FE
:103D3000AB42F5D24546532200212800FEF758FD3C
:103D40001022FF213B48FEF753FD2022FF213A4875
:103D5000FEF74EFD05E0504600F04EFB3B78002B91
:103D6000E9D0039BAB7080E6049E390032005046D8
:103D700000F058FB84460828C0D98642BED32B4E9B
:103D8000039B012B44D00022404609E0BB78D318A6
:103D9000DBB2C318D978FF29B0D10132DD70D2B2BD
:103DA000039B9A42F2D166462B00390080463200CE
:103DB000214800F045FDB446059B67441B78AB42A3
:103DC00000D369E74E467AE41C4A6B0012685B191F
:103DD000DB00D318002B19D05A68A4E71823174A20
:103DE0006B431668F618002E88D0B36876E7FFF7A5
:103DF0008DF80200A2E60B9B4E469946104B4546B5
:103E0000002B00D135E600E000BF32E64546A8E7CA
:103E1000054BB2689A42B6D1079B0393B3E7C046FD
:103E2000AD1C0020112B001025440010EC52001096
:103E3000F9430010A7150020B71500207C120020C0
:103E400000000000F8B557464E46DE4645460C00D9
:103E5000E0B516001F00002A3CD01F4B00259A46F3
:103E6000702399461D4B9B4617E05B4620009978CE
:103E700000F0A8FC00281FD021004046FFF7F4F90D
:103E8000002819D0A378DA09012A1CD00A9A013532
:103E900013702378E418B5421CDA6378052B0BD134
:103EA000E3789B079B0FBB4206D153464A461B78DB
:103EB0009846A3781A42D8D00020F0BCBB46B24640
:103EC000A946A046F8BD0B9A013513702378E41873
:103ED000B542E2DB0120F0E70C0F0020A415002022
:103EE000802310B51B0184B001930E4B02901C6817
:103EF00003916269EFF3108372B611680029FCD058
:103F0000BFF35F8FA361200001A900F0DFFD6269AC
:103F1000A369BFF35F8F0021116083F3108804B0A1
:103F200010BDC046FC150020702270B5094B0C0076
:103F30001D788B781A4201D0002070BD064B2000FE
:103F4000997800F03FFC0028F6D021002800FFF708
:103F50008BF9F2E70C0F0020A41500200B007F2046
:103F600010B51840DB0933334000044AC018044B35
:103F70001168C01800F0E2FB10BDC046F815002023
:103F8000A41500200B007F2010B51840DB09333347
:103F90004000044AC018044B1168C01800F0F6FB3A
:103FA00010BDC046F8150020A415002070B57F2470
:103FB0000F480C4064000419CD0964193034E078CE
:103FC000C00701D5002070BD0126E57809483543BA
:103FD0000078E570FFF7D0F90028F4D10122E378EA
:103FE0009343E370E37803329343E370EAE7C04618
:103FF000A41500200C0F002070B5094C0600082203
:1040000020000D00FEF7FAFB00238021E360A3608F
:104010002B783000994300220023FFF7C7FF70BDC3
:1040200048150020F8B5CE4647469046264E80B546
:104030008146082230000D001F00FEF7DFFB4346DB
:10404000B3600023F381EC79AB7924021C43231C79
:10405000BC4200D93B1C9FB2B381002C0ED0002F74
:1040600018D04346002B2CD03B1C402F1BD89FB2AE
:1040700033787F2B1CD80021144A0FE080212B7845
:104080000022994348460023FFF790FFC0BCB94681
:10409000B046F8BD7F230022317899433B00484663
:1040A000FFF784FFF2E740239FB233787F2BE2D9FA
:1040B000064C3A0041462000FEF7A0FB802122007A
:1040C000ECE70020E2E7C046481500206415002018
:1040D00010B5142200210248FEF78AFB10BDC0462D
:1040E00048150020014B18617047C0464815002054
:1040F00010B5054C010008222000FEF77FFB0023CD
:10410000A360E36010BDC0464815002070B5394C6F
:104110001D0023780600DA09C9098A4213D000205D
:10412000002D00D070BD344B002B03D02100300097
:10413000FFF78CF82369002B03D022000321300005
:1041400098470120EEE77F2B06D8A068002834D0DE
:104150002A002A49FEF752FBE289A1685219E38836
:1041600092B24919E281A160934214D03F2D12D935
:10417000A389981A051C80B240282AD82078ADB2AD
:104180007F2828D800219A4232D01C4A2B003000C8
:10419000FFF70CFFC6E72369002B05D022000221A0
:1041A0003000984700280AD08021237800229943C4
:1041B00030000023FFF7FAFEB4E70020B2E7002149
:1041C0003000FFF7EBF830008021FFF7E7F801201F
:1041D000A8E74025D2E79A4207D0084C2A002000E1
:1041E000FEF70CFB80212200D0E780210022CDE7E2
:1041F0000022CBE7481500204D3200106415002046
:1042000010B50400FFF744F9002801D1002010BDCB
:10421000FFF746F90028F9D1B22292006243034B1E
:1042200001309B181B791840F1E7C046801200202E
:10423000B2239B00434310B50248181800F050FB0E
:1042400010BDC04690120020F0B5B225AD00454328
:104250002C00C646174F1034E41900B5200092B266
:1042600000F0C0FB0600200000F058FB3F2803D8F8
:10427000300080BCB846F0BD7B190020D978984644
:10428000FFF76CFE0028F3D0200000F047FB3F282A
:104290000AD992239B00EA184346D219D978002004
:1042A0004023FFF783FEE3E743460020D978FFF77A
:1042B00069FEDDE780120020F8B50400FFF7E8F89A
:1042C000002801D10020F8BDFFF7EAF80028F9D155
:1042D000B2239B005C432500144E2435AD19280001
:1042E00000F0FEFA0028EDD037190020B978FFF76A
:1042F00035FE0028E6D0A2239B009C466444A41906
:1043000021002800402200F06DFBB978051E08D07E
:10431000030022000020FFF749FE0028D2D0280029
:10432000D1E70020FFF72EFECCE7C0468012002028
:1043300070B5B224A4004443094B0500E4182000E2
:1043400092B200F007FC0600200000F0C9FA3F28F6
:1043500001D8300070BD2800FFF7AEFFF9E7C04676
:10436000A4120020B2239B00434310B50248181842
:1043700000F0D4FA10BDC046A4120020B222F0B55D
:104380001B4C83B0002120009200FEF731FAFF237E
:104390006371184B80260025E38001270823210044
:1043A0002000760023733200278138310095073BC7
:1043B000103000F05FFA2100200039313200FF3167
:1043C00001230097243000F055FA8E239B00E61855
:1043D0003000FCF7CFFB90239B002662E6183000EC
:1043E000E561FCF7C7FB2663656303B0F0BDC0461B
:1043F0008012002000C2FFFF10B5094C05220021E9
:104400002000FEF7F5F920002434103000F05AFCAB
:10441000200000F057FC0121200000F073FC10BDCB
:1044200080120020F0B54B79060083B0022B02D138
:104430008B79022B03D00025280003B0F0BD2F4F4D
:10444000BB78002BF7D18B7809253B700C780C19C1
:104450006378242B0BD1082A02D81FE0AA421DD36F
:104460002378E4185D196378ADB2242BF6D0052BC0
:1044700031D0042B12D163790A2B0FD1204B27782E
:10448000019301330093022202233000E119FFF768
:10449000D9FC0028CFD00E35ED19ADB2194C200053
:1044A00000F03CFA3F28C7D92600103E0020F178E2
:1044B000FFF754FD0028BFD0200000F02FFA3F285E
:1044C00017D98E239B00E218F93BF178FF3B0020BF
:1044D000FFF76CFDB0E721003000FFF725FD002855
:1044E000A9D0A3787B7023785D19E4186378ADB206
:1044F000BFE7F1780020FFF745FD9DE7801200201F
:104500008212002090120020F8B560231400127867
:10451000050013400020202B12D12F4A6379277900
:1045200016781B023B439E420AD16378222B27D088
:1045300007D8202B17D0212B02D101293DD00120F3
:10454000F8BD232BFCD101293FD00329F7D1234B00
:10455000002BF4D0E178A37809020020194300E091
:1045600000BF0120ECE7012927D00329E7D11C4B2C
:10457000002BE4D00020911DFEF7D0FA0120DFE7E8
:10458000012922D00329DAD101252E00A378E4786D
:10459000023924021C431471264024321000714059
:1045A00000F0B0FB0F4B002BC9D062080020310097
:1045B0002A4000E000BF0120C2E7072321002800B5
:1045C000094AFFF72FFD0120BAE721002800FFF775
:1045D00013FD0120B4E7C046801200200000000057
:1045E0001D2B00100000000086120020F8B5454683
:1045F0005746DE464E46E0B5464D1F00EA788046F7
:104600000C00AB788A4246D000208B421AD0F0BC16
:10461000BB46B246A946A046F8BD3F4B002B04D08E
:10462000484600F073F900286CD0484600F076F94F
:104630003F2807D94E46103E0020F178FFF78EFC48
:10464000002851D1AB78A34201D00120DFE7334BE2
:10465000002B02D0002000E000BF0020FFF72CFE5E
:104660000028F2D12E4C200000F03AF90028ECD1BD
:10467000002FEAD0BF06E8D1243C4046A178FFF7DE
:104680006DFC0028E1D0002300224046A178FFF70E
:104690008DFC0120BBE792239B00EE1810239B4664
:1046A000AB4431005846BAB200F054FA1D4BD9461B
:1046B000002BB2D06B79FF2BAFD0002FADD0F21909
:1046C000924603E00136B245A7D06B7932789A4220
:1046D000F8D1484600F01AF90028F3D14B46103BB8
:1046E000597900E000BFEDE7484600F017F93F2890
:1046F0000BD98E2292004023F1784A440020FFF724
:1047000055FC9FE7FEF77EFB8FE7F1780020FFF76F
:1047100039FC97E780120020052E001000000000F1
:10472000A41200200000000010B50020FEF7CAFE11
:1047300010BDC04610B5FEF7BBFE10BD037870B5C6
:10474000DB0704000E00DD0F002B17D103785B0799
:1047500001D5280070BD01213000494200F0F8FB6E
:104760002378DB07DD0F002B0AD123785B0708D401
:104770000422237801251343237002E00025E8E793
:104780000025300000F0C4FBE3E7C04670B50C0024
:10479000012106004942200000F0DAFB33785B0774
:1047A000DD0F002B04DB200000F0B2FB280070BD01
:1047B0003378DB0704D40422337893433370F2E771
:1047C0000025F0E7437902791B0213435B055A0D7C
:1047D000C3789B079B0F022B05D0032B15D000201D
:1047E000012B08D0704702291ED00020402393429D
:1047F0004041C0B2F6E702394B4259410D4B9C464D
:10480000614491424041C0B2ECE702394B1E9941EC
:10481000094B494219408023DB009C46002061443B
:1048200091424041C0B2DDE7044BD01843425841A9
:10483000C0B2D7E7FF03000040FCFFFF00FEFFFF10
:104840008A1870B5914207D27F264C78052C04D087
:104850000C7809198A42F8D870BD34008D782C4044
:1048600064000419ED0963550C7809198A42ECD8E3
:10487000F2E7C046F0B5C64600B5040006A80578C4
:104880008020884617001E000002824226D8E06879
:10489000002803D00121494200F05AFB206900287A
:1048A00003D00121494200F053FB434623607304C7
:1048B0005B0CED031D430023E0686381A780E58066
:1048C0002381002801D000F023FB2069002801D0BB
:1048D00000F01EFB012080BCB846F0BD0020FAE7C6
:1048E00010B5048941898288A3B288B28C4207D36B
:1048F0001B1A9BB2101C9A4200D9181C80B210BD22
:104900005100091A5B189BB2F4E7C046038940893D
:10491000181A43425841C0B27047C04610B50489C6
:1049200041898288A3B288B28C4207D31B1A9BB2FA
:1049300000209A4201D9D21A90B210BD5100091A32
:104940005B189BB2F4E7C04670B5040000690E0026
:10495000002803D00121494200F0FAFA2589608934
:10496000A288A9B283B285422BD3CD1AADB2002D55
:104970002DD0AA4208D291422FD3891A8BB26381DB
:104980009A4203D89B1A9BB29A42FBD9E2882168CB
:104990005204520C53433000C918FDF72FFF6389AE
:1049A0000125591C89B2A2888B4212D95200891A5A
:1049B00089B220696181002801D000F0A9FA28009D
:1049C00070BD5500ED1A4D19ADB2002DD1D16189E0
:1049D00089B252009142ECDBE9E789188BB263811E
:1049E000CEE7C046F0B546464F46D646C0B50600AF
:1049F000006989469046002803D00121494200F011
:104A0000A7FA31897289B5888BB294B2914254D396
:104A10001F1BBFB2002F4AD0BD4205D2AB4251D2BC
:104A20005B199CB22F0074814346B8453DD89FB2B4
:104A3000A54203D8641BA4B2A542FBD9F288316811
:104A40005204520C904662432B1B9BB2891842467B
:104A50009F4225D953439BB21A0048469A46FDF718
:104A6000CDFE434648467D1B64195C433168504483
:104A7000A2B2FDF7C3FE7189B588CB199BB26A005B
:104A8000994216D99B1A9BB230697381002801D0D4
:104A900000F03EFA3800E0BCBA46B146A846F0BD88
:104AA00048467A43FDF7AAFEE5E73B1CBFE773895A
:104AB0009BB26A009342E7DBE4E76F003F1BDF191C
:104AC000BFB2A7E75B1B9CB2ACE7C046F8B50400D9
:104AD000C0680E00002803D00121494200F038FAD6
:104AE000258920896189A288ADB283B28FB28842BC
:104AF00028D3DB1B9BB29A4209D8E779FF0906D17C
:104B0000E068002801D000F003FA3800F8BD2B005F
:104B1000954203D39B1A9BB29342FBD2E288206852
:104B20005204520C53433100C018FDF767FEA288AF
:104B30006B1C9BB252009D4209D99B1A9BB2012764
:104B40002381DDE75100C91B5B189BB2D3E7934279
:104B5000F5DBF2E7F0B54546DE4657464E46E0B592
:104B600088460500140083B0002A6FD0C068002872
:104B700003D00121494200F0EBF92E89EB796A89D3
:104B8000B6B292B2DB0940D1AB88964267D25900E7
:104B90008A1AB21892B20027934230D99A1A171C77
:104BA00092B2A24200D9271CEA88BFB25204520C2A
:104BB0009146F21992B29246FA1A92B29346340092
:104BC000B34203D8E41AA4B29C42FBD24A466243E1
:104BD00028681B1B9BB280184A46BB4253D34146F0
:104BE0007A43FDF70BFEAB885B00B24501D39A45D3
:104BF00003DB5246D31A9BB29A4653462B81E86890
:104C0000002824D000F084F921E0AF88BC4229D2EA
:104C100096424AD3B31A9BB279001B198B4208DB28
:104C2000D3199BB21E1BB6B29A46B24242D9761A2B
:104C3000B6B2EB885B045B0C9946A3199BB29A460B
:104C4000E31B9BB29B463B002700B8E700273800D8
:104C500003B0F0BCBB46B246A946A046F0BDB21AAE
:104C600092B298E7002FCAD0EB88E41B5B045B0C80
:104C70005C4399461600D31900229BB29A4693468C
:104C80003B00A0449BE7534399B20A0001915C4466
:104C90004146FDF7B3FD22004B465A43019928686F
:104CA00092B24144FDF7AAFD9DE779008B1AF318F3
:104CB0009BB2B2E7B142BADDEB885B045B0C99466C
:104CC000BEE7C04610B50400C068002803D001212B
:104CD000494200F03DF92069002803D001214942F2
:104CE00000F036F90023E06863812381002801D0B9
:104CF00000F00EF92069002801D000F009F9012028
:104D000010BDC04670B50400C0680D00002803D077
:104D10000121494200F01CF92069002803D001213B
:104D2000494200F015F97F21E379ED011940E0686F
:104D30002943E171002801D000F0EAF82069002839
:104D400001D000F0E5F8012070BDC046F0B54E4638
:104D500081464E4B45464B445A4253418022DE46E3
:104D60005746920294465B42E0B51B0C484A1B042E
:104D700063441360474A0D00474983B0136018002D
:104D80008A689043FBD10620FCF73CFF4B465A68EB
:104D900002231A40019204224A449346C0225946F3
:104DA000920111430B608A468021804649008C465F
:104DB00041460220A846EF0D6E02AB0DAA020091FB
:104DC00004E0009CA5425ED8604553D00100150068
:104DD0001C00023092197B41002CF2D0009B45460A
:104DE00098465B468024AB460D000E02761A64009E
:104DF00000932700013C002C40D031004046FDF7D5
:104E0000B7F8761B8345F4D2009B29009B466F437D
:104E100024024B4619611B684A465C40FF231B0273
:104E20001C4080235B011343802259460198920164
:104E300011431C60086048465546446802202860BB
:104E40004D462E6807256E40C83535401D604B46DF
:104E500024331A43032304400C60136008603900B4
:104E60004046FDF785F803B0F0BCBB46B246A94604
:104E7000A046F0BD45460100A046B2E7009B2900D0
:104E80009B462F00C5E74546A046AAE70040FCBF69
:104E900000E0004000F0004000C0004010B5830773
:104EA0000AD00300032102E001330B4205D01A7837
:104EB000002AF9D1181A10BD030019680C4A0D4CCC
:104EC0008A188A4322420FD15968094A04338A1842
:104ED0008A43224208D15968054A04338A188A4312
:104EE0002242F1D000E001331A78002AFBD1E1E739
:104EF000FFFEFEFE80808080F8B5C0460000000006
:104F000001B40248844601BC604700BFC9020020CA
:104F100001B40248844601BC604700BF2D02002056
:104F200001B40248844601BC604700BFD509002097
:104F300001B40248844601BC604700BFC10D002097
:104F400001B40248844601BC604700BFC100002094
:104F500001B40248844601BC604700BF9D010020A7
:104F600001B40248844601BC604700BF750D0020B3
:104F700001B40248844601BC604700BF0101002023
:104F800001B40248844601BC604700BF490B0020C1
:104F900001B40248844601BC604700BFAD0900204F
:104FA00001B40248844601BC604700BF8903002069
:104FB00001B40248844601BC604700BFF10A0020EA
:104FC0004E6F207370696E6C6F636B7320617265D6
:104FD00020617661696C61626C6500004E6F2075BE
:104FE0007365722049525173206172652061766148
:104FF000696C61626C65000048617264776172651A
:1050000020616C61726D20256420616C7265616441
:105010007920636C61696D65640000000A2A2A2AA0
:105020002050414E4943202A2A2A0A000A00000043
:1050300048617264206173736572740052656C65B7
:1050400061736500626F6F74325F7732357130382B
:105050003000000068747470733A2F2F67697468A9
:1050600075622E636F6D2F726173706265727279F3
:1050700070692F7069636F2D6578616D706C6573F1
:105080002F747265652F484541442F2E2E2F2E2EEA
:105090002F7069636F5F61737369676E6D656E749E
:1050A000732F6877342F747269616E676C657761EE
:1050B00076650000312E352E310000007069636F77
:1050C00000000000747269616E676C6577617665D7
:1050D000000000004170722031352032303234003F
:1050E00006005250D3F075423C500010060052505A
:1050F000E182887F44500010060052509A235618CF
:105100005450001006005250BBFF3CB6BC5000107B
:105110000D0A0000752A0010792A0010852A001057
:10512000B12A0010AD2A00100000000055534220A3
:10513000737464696E202F207374646F757400003B
:105140000600525053B4F4A12C51001052617370F8
:105150006265727279205069000000005069636FC7
:1051600000000000426F617264204344430000006D
:105170005265736574000000000000004C5100107F
:105180005C5100109C1C00206451001070510010F4
:1051900009025400030100807D080B000202020096
:1051A000000904000001020200040524002001059A
:1051B00024010001042402020524060001070581E0
:1051C0000308001009040100020A0000000705029C
:1051D00002400000070582024000000904020000AE
:1051E000FF00010512010002EF0201408A2E0A00B1
:1051F0000001010203010000556E68616E646C6578
:10520000642049525120307825780A0065702025A5
:10521000642025732077617320616C726561647905
:1052200020617661696C61626C65000043616E2784
:105230007420636F6E74696E756520786665722080
:105240006F6E20696E6163746976652065702025D4
:1052500064202573000000006F757400696E000003
:10526000C43500105837001006370010C435001040
:10527000E8360010D03600106436001012360010E8
:1052800006360010443A00102A3A0010BE360010CC
:10529000C03A0010BE360010A83A0010943A001030
:1052A000BE360010803A0010583A0010BE3600108A
:1052B000443B0010283B00101C3B0010BE36001081
:1052C000BE360010FE3A0010283B0010BE3600101B
:1052D000BE360010BE360010BE360010BE360010BE
:1052E000BE360010BE360010DA3A00107D430010C2
:1052F000F94300102544001009450010ED45001049
:0453000000000000A9
:10530400E0500010EC500010F8500010880200101B
:105314000451001094020010A0020010AC0200100E
:0453240040510010E4
:1053280003000068EFF3108C72B60268002AFCD004
:10533800BFF35F8F04229A56002A04DB002900D0AD
:105348000A60002004E0D0220120120612681A71B7
:105358001B68BFF35F8F00221A608CF310887047B8
:10536800F0B5C646150000B504001E000268EFF34C
:10537800108172B61368002BFCD0BFF35F8F042333
:10538800E356002B2DDB2268BFF35F8F00201060EF
:1053980081F31088D0221206127852B290469A42AF
:1053A80003D1002080BCB846F0BD00270BE023687D
:1053B800BFF35F8F1F6081F310882800310000F071
:1053C8004BFE0028EDD12268EFF3108172B6136806
:1053D800002BFCD0BFF35F8F23797F2BE7D943469F
:1053E80002E0D0231B061B6823712368BFF35F8F7D
:1053F80000221A6081F310880120D3E7F0B5C64671
:1054080000B50D00040000F01FFEFA2206000F0090
:10541800002328000021920000F006FE80233618A1
:105428004F411B069F4202D30126174F7642D023D5
:105438001B061B68002598460BE02368BFF35F8FA7
:105448001D6081F310883000390000F005FE002847
:1054580018D12268EFF3108172B61368002BFCD0C4
:10546800BFF35F8F23797F2BE7D9434623712368E6
:10547800BFF35F8F00221A6081F31088012080BC7F
:10548800B846F0BD0020FAE7FFFFFF7F0268EFF3A0
:10549800108172B61368002BFCD0BFF35F8FFF2317
:1054A80003710368BFF35F8F00221A6081F31088CD
:1054B80040BF704710B5084C2378002B0AD18023D1
:1054C800064807495B051A68C25004338B42FAD173
:1054D8000123237010BDC046AF1C0020D016001059
:1054E8000001001010B5014B984710BDD1160020DF
:1054F800034B1A68C0239B009343024A136070470A
:105508000C8001400C900140054B1A6880239B00D9
:105518005340C02292001340024A13607047C046AD
:105528000C8001400C9001401423F0B5D6464F463C
:1055380046469A46814618880433C0B598460E00F8
:105548001B88264914009847534607001888434685
:1055580023491B8898475346050018884346214924
:105568001B8898478046FFF7A5FFB847A847FFF76D
:10557800CBFF221E20D0C02108270220490511E0B8
:10558800002C14D0131B0D2B20D9002D0AD023007A
:10559800002A05D00B6E013A3370130001362343FD
:1055A800002B09D03D008B6A1D401842E8D1002D20
:1055B800EDD123001343F5D1FFF79AFFC047FFF75A
:1055C80091FFE0BCBA46B146A846F0BD4B461B78F1
:1055D800013C0B6601239C46E144E8E7494600008C
:1055E80045580000464300000022154B10B59A604C
:1055F800DA601A615A619A61DA611A625A629A62C9
:10560800DA621A635A639A63DA631A645A649A64A8
:10561800DA641A655A659A65DA651A665A669A6688
:10562800DA661A675A679A67DA67F03292000021D9
:10563800044800F019FD044B044A1A6010BDC04626
:105648000000105090180020581C002080011050B5
:10565800F0B55746DE464E464546E0B5244B87B082
:105668009F6D002F23D0234B002499460123984691
:10567800214B01269A4604E001347600E4B2202C3E
:1056880015D03E42F8D04B469E65434665086D00EE
:10569800A343ED186D015544280000F0BBFB00281A
:1056A8000CD10134B743E4B27600002FE7D107B03C
:1056B800F0BCBB46B246A946A046F0BDAB7802A8EE
:1056C8009B46EB8A062200210630019300F0CCFCB1
:1056D800E023594602AADB009380019B117203A8BC
:1056E8000121059300F0BEFB280000F02BFBD8E752
:1056F8000000115000301150501800209823C84A5B
:10570800F0B5D55880232C009B02102685B01C408C
:105718001D427AD0C34BC44C9A6AC44B00261A6007
:105728003B23E35C022B00D1DFE07B23E35C022B0D
:1057380000D1B9E1BB23E35C022B00D1A9E1FB2333
:10574800E35C022B00D199E13C23FF33E35C022B9D
:1057580000D158E17C23FF33E35C022B00D145E103
:10576800BC23FF33E35C022B00D132E1FC23FF337F
:10577800E35C022B00D11FE1AD4BE35C022B00D1AF
:105788000EE1AC4BE35C022B00D1FDE0AA4BE35CDD
:10579800022B00D1ECE0A94BE35C022B00D1DBE04B
:1057A800A74BE35C022B00D1CAE0A64BE35C022BBB
:1057B80000D1ABE0A44BE35C022B00D17FE1A34B0B
:1057C800E35C022B00D196E1002E08D1A04B1B7898
:1057D800002B04D180219F4A90338902D150904BED
:1057E8000A229C6C6B460021981D00F03DFCC023EA
:1057F800640501AE9B00640D3380300002940121E2
:10580800802400F02FFB944EA402EB0669D4802379
:105818005B021D4214D0012223211C43824B5A549F
:10582800DA70C0238D4ADB00019302AB03CA03C3BD
:10583800012101A800F016FB8022864B92021A650E
:1058480080235B011D4233D18023DB011D421CD123
:1058580080231B021D4204D1AC4200D0C8E105B030
:10586800F0BD1C436B460A220021981D00F0FCFB8A
:10587800A02301AEDB0033800121300000F0F2FAF2
:105888008022744B12011A65E6E71C436B460A2214
:105898000021981D00F0E8FB802301AEDB00338077
:1058A8000121300000F0DEFA10226A4B1A65CFE7BA
:1058B80000221C435A4B01AE1A60FFF795FE6B4657
:1058C8000A220021981D00F0CFFB80235B00338063
:1058D8000121300000F0C6FA80225E4B12031A65DF
:1058E800B2E7FFF7B5FE340091E73833E65C002EE7
:1058F80000D11AE70233E25C002A00D115E7200044
:1059080000222030E25400F04FFA0EE7544BE75CD7
:10591800002F00D14EE70233E25C002A00D060E19C
:10592800494BE35C022B00D1DBE0484BE35C022BE4
:1059380000D054E74B4BE35C002B00D0E0E04EE78F
:10594800494BE75C002F00D12FE70233E25C002AC5
:1059580000D03EE13E0028E7444BE75C002F00D131
:105968001EE70233E25C002A00D02AE13E0017E776
:105978003F4BE75C002F00D10DE70233E25C002AC1
:1059880000D016E13E0006E73A4BE75C002F00D155
:10599800FCE60233E25C002A00D002E13E00F5E6B4
:1059A800354BE75C002F00D1EBE60233E25C002ABE
:1059B80000D0EEE03E00E4E6F933FF33E75C002F69
:1059C80000D1D9E60233E25C002A00D0D8E03E00DC
:1059D800D2E6B933FF33E75C002F00D1C6E60233C5
:1059E800E25C002A00D0C2E03E00BFE67933FF3314
:1059F800E75C002F00D1B3E60233E25C002A00D056
:105A0800ACE03E00ACE63933FF33E75C002F00D151
:105A1800A0E60233E25C002A00D096E03E0099E658
:105A28000000115000400540501800204818002080
:105A38003B0200007B020000BB020000FB020000EA
:105A48003B0300007B030000BB030000FB030000D6
:105A5800AE1C002000301150100002000000105051
:105A68007A030000FA0300003A030000FA0200007B
:105A7800BA0200007A0200003A020000F833E75C3C
:105A8800002F00D160E60233E25C002A55D13E00C7
:105A98005AE6B833E75C002F00D150E60233E25CE7
:105AA800002A42D13E004AE67833E75C002F00D155
:105AB80040E60233E25C002A2FD13E003AE64F4B23
:105AC800E35C002B00D17AE6EF239B00E25C002A1E
