:020000041000EA
:1000000000B5324B212058609868022188439860DF
:10001000D860186158612E4B002199600221596106
:100020000121F02299502B49196001219960352056
:1000300000F044F80222904214D00621196600F024
:1000400034F8196E01211966002018661A6600F04E
:100050002CF8196E196E196E052000F02FF8012189
:100060000842F9D1002199601B49196000215960AB
:100070001A491B48016001219960EB211966A021F2
:10008000196600F012F800219960164914480160C1
:100090000121996001BC002800D000471248134993
:1000A000086003C880F30888084703B5996A0420EC
:1000B0000142FBD001200142F8D103BD02B5186610
:1000C0001866FFF7F2FF186E186E02BD00000240BE
:1000D000000000180000070000035F00212200005C
:1000E000F4000018222000A00001001008ED00E03C
:1000F00000000000000000000000000074B24E7A12
:1001000000200420F7010010C3010010C5010010F9
:10011000C1010010C1010010C1010010C101001097
:10012000C1010010C1010010C1010010C701001081
:10013000C1010010C1010010C9010010CB01001065
:10014000CD010010CD010010CD010010CD01001037
:10015000CD010010CD010010CD010010CD01001027
:10016000CD010010CD010010CD010010CD01001017
:10017000CD010010CD010010CD010010CD01001007
:10018000CD010010CD010010CD010010CD010010F7
:10019000CD010010CD010010CD010010CD010010E7
:1001A000CD010010CD010010CD010010CD010010D7
:1001B000CD010010CD010010CD010010CD010010C7
:1001C00000BE00BE00BE00BE00BE00BEEFF3058054
:1001D000103800BEF2EB8871704700109447001091
:1001E0003402001090A31AE700201F49086006C8D7
:1001F00081F3088810471D48006800282FD10DA4FE
:100200000ECC002902D000F012F8F9E71849194A7B
:10021000002000E001C19142FCD1174988471749ED
:1002200088471749884700BEFDE701C901C29A42C5
:10023000FBD3704794470010C0000020A00E0020A0
:1002400074550010000004200000042074550010B4
:10025000001004200010042000000000704709482E
:1002600001F048FE0047000008ED00E0000000D06B
:10027000A00E00208C1900206D1D00109D040010A0
:10028000611E00105756000006005250ABB3605379
:10029000CC45001006005250861C0302DC450010BD
:1002A000060052505422A29DE44500100500525011
:1002B000DE65F46874550010F8B5C0460448054B77
:1002C00010B5834203D0044B002B00D0984710BDDB
:1002D000A00E0020A00E00200000000006480749E4
:1002E000091A8B10C90FC91810B5491003D0044B57
:1002F000002B00D0984710BDA00E0020A00E0020BB
:100300000000000010B5074C2378002B09D1FFF73F
:10031000D5FF054B002B02D0044800E000BF0123AD
:10032000237010BDC811002000000000B843001069
:10033000054B10B5002B03D00449054800E000BF71
:10034000FFF7CCFF10BDC04600000000CC1100201C
:10035000B8430010FA22024B92001A607047C04660
:10036000A80D0020FA22014B1A607047A80D00204A
:10037000014B024A1A607047A80D0020C409000012
:10038000FA22024B92001A607047C046A80D002066
:1003900010B584B001F064F800290BD0FA220023D4
:1003A000920001F017FE144A1368C01A09280AD8EF
:1003B00004B010BDFA21890001F0CEFD0E4A136889
:1003C000C01A0928F4D90A33136002F08BFC041E0A
:1003D00002D002F08FFCEBE7002003F0FFFA0028C8
:1003E000E6D03223002201210294019400930020E0
:1003F00003F010FBDCE7C0466C19002000207047BA
:1004000010B502A80088022A00D010BD0029FCD136
:100410000028FAD01B781A4205D0074B012019603A
:1004200003F036FFF1E7002003F032FFFA22024B1F
:1004300092001A60E9E7C046A80D00203B23F0B502
:1004400089B0154E03AA13703A3B0400009368214B
:10045000300003F063FE002304AD2A0000936821FE
:1004600030000E3303F0C2FE6F88AE88E888298919
:100470006A89AB892D887FBA76BA40BA49BA52BA2E
:100480005BBA6DBA25806780A680E0802181628199
:10049000A38109B0F0BDC046780E0020F0B5C64675
:1004A00000B58AB002F082F93B4C3C49200003F0D1
:1004B0000BFE0321042000F0CFF80321052000F0FB
:1004C000CBF87523002504AA1370743B6821200023
:1004D000009303F023FE012368212000009503AA66
:1004E00003F084FE6B236A46682193822000009506
:1004F000693B05AA03F012FE1C236A466821938219
:10050000200000951A3B05AA03F008FE6A46244B1A
:10051000682193822000022305AA009503F0FEFDC6
:1005200000F09EFF03F0AAFE03F030FC1D4B1E4EB0
:1005300098461E4D1E4F06AC17E0FA22002392008B
:1005400001F048FD3B682A68C01A90420BD39B1803
:100550003B604346187803F09BFE434601221B781C
:10056000534042461370FFF713FF2000FFF766FF6A
:1005700001200422A35E00214042338002F048FCA7
:100580002B68002BEFD000F06BFF0029D5D1FA21AA
:10059000890001F0E1FCD5E7780E0020604F0500EE
:1005A0001B1800008719002080190020A80D0020CA
:1005B0006819002000487047E84400100048704760
:1005C000F843001000487047D443001010B5041ED3
:1005D00026D0032831D02CD81A4BA400E458200090
:1005E00003F060FEC0B2011C1F2814D8C9B2002855
:1005F00021D00023144AE05C01331080D8B20232CB
:100600008142F8D8C0230131C9B249009B000B4395
:100610000E48038010BD1F21C9B20028E9D10AE0AD
:10062000084B02221968084801F0A0FFC1239B0073
:10063000EEE70020EEE7064BEAE71121054802F05D
:10064000C3F8C9E7AC0D0020FE110020FC1100200A
:10065000020300004C190020094A10B594464024BA
:10066000830063441A68C0006240803414408022D2
:10067000520113431C60034B9C466044416010BD13
:1006800004C00140004001400123D02283401206F3
:1006900093629361094A40219446830063441A6837
:1006A000C0004A408031114080225201134319603A
:1006B000034B9C46052360444360704704C00140DF
:1006C00000400140024B18688007C00F7047C046C9
:1006D00000C0064070B5EFF3108C72B60D4D2B685C
:1006E000002BFCD0BFF35F8F0724CB08C618C05C7B
:1006F00001230C40A3401C000440034207D11843CF
:100700003070BFF35F8F2C608CF3108870BD1000C9
:1007100001F0AAFB2C0100D0F8B54746CE4688462A
:1007200080B5EFF3108C72B6214D2C68002CFCD0F4
:10073000BFF35F8F9A422CD8D4080727055D0619AE
:1007400001241740BC402C421FD0072101278946B5
:1007500009E0D408055D06194C4639001440A14053
:100760000C00294211D001329342F2D201204042C2
:10077000BFF35F8F00220E4B1A608CF310880028A5
:100780000FDBC0BCB946B046F8BD2543100035703C
:10079000EEE7BFF35F8F00232B608CF310880120FE
:1007A00040424346002BECD0089801F05DFBC04668
:1007B0002C0100D00021044B044ABFF35F8F02C319
:1007C0009342FAD17047C046000100D0800100D0AA
:1007D000044A1078431CDBB2172B00D91023137086
:1007E0007047C046BC0D002010B5064B064C82B0C9
:1007F0000100009318221F232000FFF78DFF02B095
:1008000010BDC046FC440010DC14002001238340CE
:10081000002904D0034A1360034A13607047034A57
:100820001360FBE780E200E000E100E080E100E02F
:10083000024B10309B688000C058704700ED00E00C
:1008400070B50D00EFF3108672B60F4A1368002BD7
:10085000FCD0BFF35F8F0D4B10309B6884001B5999
:100860000B4A934203D09D4201D001F015FB074B88
:100870009B681D51BFF35F8FBFF35F8F0022024B58
:100880001A6086F3108870BD240100D000ED00E0EE
:10089000CD010010F0B557464E46DE464546E0B560
:1008A00085B0060000911700EFF3108B72B66A4A0C
:1008B0001368002BFCD0BFF35F8F0025674B5D579B
:1008C0009A46002D00DA8BE06B00654C01935B19B2
:1008D0009B009846A146C1444B4652469B79103630
:1008E0001370604BB6009B6899590B1B2F2B33D9A3
:1008F0005D4B994200D0ACE0019B42469C465B4B6D
:100900006544AD0063535A4B0232A218043B9B1A54
:100910001B05584A5B0D651913436B80564B01212B
:10092000AB80FF23AB71009BEF71AB604B460B4379
:1009300019004C4B9B689951BFF35F8FBFF35F8FDA
:100940000022454B1A608BF3108805B0F0BCBB4603
:10095000B246A946A046F0BD01200A008243D379E1
:100960008C46BB4231D84546130044491B1B5B41B2
:100970005943090D3D4B63533D4B02356519043B0B
:100980005B1B1B053B4D5B0D2B43AA464D466B8005
:100990000425AC465546E044131F44441B1B1B056D
:1009A0005B0D1D434B46997100999D8099604946A6
:1009B000DF71334B01431360BBE75800C018800060
:1009C0002018C179B94211D902000623D356002B51
:1009D000F3DA0293131D9A462A4B6146039319E0FA
:1009E00001F05AFA002553465D576DE7908802934F
:1009F0004005131D9A46031561469C464046D44463
:100A0000634604302018181AE0230005400D1B022D
:100A10001843039004235B429C46E14450464B46F6
:100A20001B1A1B055B0D9C46124B9571984663463D
:100A3000404603439380019B5A199200039BA418DC
:100A4000A380029B0E4AA371009B2260E771A36002
:100A50006FE701F021FA4FE7240100D0861900204A
:100A6000C00D002000ED00E0CD01001000A1FFFF4F
:100A7000F00D002000E0FFFF01BDFFFFAAAA00006B
:100A80000148804701BD0000F0B5DE4657464E469E
:100A90004546E0B50C0083B0EFF3108872B65D4AAE
:100AA0001368002BFCD0BFF35F8F5B4B5B499A68E8
:100AB000030010339F00D5598D4239D0A5424AD04A
:100AC000574EAA1B2F2A33D80122924682409146C4
:100AD0004846544A1268104001904846524A1060F5
:100AE000BFF35F8FEFF305829346002A35D0934220
:100AF00001D001F0D1F92A0053469A43906884420C
:100B000008D175E04B005B189B00F3189868A04271
:100B100034D01A00062151560029F3DA844253D00A
:100B2000019B002B26D04A46404B1A603D4B1A6071
:100B3000394B9B68DD51BFF35F8FBFF35F8F00229E
:100B4000344B1A6088F3108803B0F0BCBB46B24641
:100B5000A946A046F0BD0D00EAE72A0053469A4395
:100B600090688442D6D1062010561300002809DA76
:100B70000D0031E04A462C4B1A60D9E70620185682
:100B8000002822DB42001118890074188A46A168E7
:100B90009960E179D971062161569971002925DBA7
:100BA000A488F11A6405241554440919E0240905A0
:100BB000490D24022143998013181D4A9B00117886
:100BC000F31899711070ABE713005946002914D13E
:100BD000FF3191711749918015490A789A71164A27
:100BE0009B1B5B415A43120D0A7099E71349E2E7D8
:100BF0000620105613000028C4DA114A1149D21AEF
:100C0000083A5002400D014399800F4952080A43A7
:100C1000DA8085E7240100D000ED00E0CD0100106E
:100C2000C00D002000E100E080E100E080E200E093
:100C30008619002001BDFFFFAAAA000001BD000027
:100C4000FA0D002000F0FFFF00F8FFFF70B5EFF392
:100C5000058101240443EFF3108C72B6214A136816
:100C6000002BFCD0BFF35F8F1F4B05001F4AED1A0E
:100C70006D416A43120D1E4D8900AE6852B276581E
:100C8000A6421CD00621595691421CD01221595619
:100C9000914222D01E215956914220D02A215956E4
:100CA0000324914210D0134B19781A708171BFF34D
:100CB0005F8F00220B4B1A608CF3108870BDAB68FD
:100CC0000D4C5C50EFE700246100091989005B18A6
:100CD000FF21997109499980E5E70124F4E702248D
:100CE000F2E7C046240100D0C00D0020AAAA0000EF
:100CF00000ED00E086190020CD01001001BDFFFFCE
:100D0000054B064A1360064A136053609360D36034
:100D100013615361936170478080808000E400E03C
:100D200004E400E0024B9C46614489000160704786
:100D30004000003410B50400FFF74AFD0100200018
:100D4000FFF7F0FFFF232371BFF35F8F10BDC04695
:100D500010B50400FFF73CFD01002000FFF7E2FFA3
:100D6000FF23A380BFF35F8F10BDC04610B5040002
:100D70000120FFF739FD034BC3189B002360BFF32D
:100D80005F8F10BD4000003483680B4810B5844667
:100D9000614462441201090159189B185C684A6851
:100DA0000120944201D802D00020C0B210BD1A68C0
:100DB0000B689A42F9D8F7E7FFFFFF0F0A4B196853
:100DC000EFF3108072B60A68002AFCD0BFF35F8F81
:100DD0001B68BFF35F8F00221A6080F3108840BF4A
:100DE000002000217047C04664190020F8B557461E
:100DF00045464E46DE46E0B598460CAB1C780DAB3A
:100E00001B78070091469A460568002C5ED1AC7BA2
:100E1000002C3BD0660029683619033E89194B78AF
:100E2000AB73002B00D1EB7300238B704B700B70F6
:100E30002D4BE218BB6812019B184A461A604246C5
:100E40005A600A9A9A600B9ADA6000238B704B7092
:100E50000B706B7B9B46002B2BD022005946A86859
:100E60006B6898472A68002816D05B4658465B0096
:100E70005B449619033BB070D118D35C002B00D0B3
:100E800073705B460C706B735C4513D0F0BCBB4653
:100E9000B246A946A046F8BD5B465B005B44033BF7
:100EA000D3189C709119925D002A00D05A705B464D
:100EB0000B706C734A464346387D00F021FB051EDB
:100EC0000AD10E9B002BE1D01D70DFE76600296878
:100ED0003619033E8919ABE75346002BF1D12100A7
:100EE000386800F031FDECE7FFFFFF0FF0B5DE469C
:100EF00057464E4645460023E0B58BB00893684BF5
:100F00008200D45800239B46099000F0A9FA020001
:100F10000B006068EFF3108A72B65646016800292C
:100F2000FCD0B246BFF35F8F21684F7B8C46002F09
:100F30002ED0A5685B49A94679180901894449461C
:100F40000868496805000E00AD1A9E41002E5FDD5D
:100F500002000B00099800F0D3FA00230022994602
:100F6000002306920793002398466368BFF35F8FC0
:100F70005A461A608AF310884346002B12D1002883
:100F8000C3D10BB0F0BCBB46B246A946A046F0BDEB
:100F90000023002299460023069207930023002095
:100FA0009846E2E7089B494618023843C047626802
:100FB00005000E00EFF3108A72B61368002BFCD008
:100FC000BFF35F8F002E41DB2B00334302D0236938
:100FD000002B56D12368D97B002905D01A68480018
:100FE00041185218033A57709A7B002A00D19F7318
:100FF000DF73E268013FD35D0133D3555B46236164
:101000006368BFF35F8F5A461A608AF310887CE7E3
:10101000002E02D1002D00D09AE70021604600F09A
:1010200011FC4B461A685B68069207934B469B6817
:1010300098464B46DB689946E368DB19013B1B7811
:1010400008931B020343236100208EE72369002BD2
:10105000C0D0069A079B8021521BB34109068B42E0
:1010600002D30122104B524200210491013103911D
:10107000494601914146200002970091FFF7B6FED4
:10108000BCE700F0EDF92A00330012184B41802133
:1010900009068B42E8D30122034B5242E4E7C046E3
:1010A00034190020FFFFFF0FFFFFFF7F10B5144C26
:1010B0006368002B04D00A211248FFF733FE10BDED
:1010C0002300114A1021206800F0D2FA032000F01A
:1010D000BBF9032000F07CFA03200C4900F0CAF9A8
:1010E000FFF776FB0A4B9C4603232375D0231B0690
:1010F0001B6860446375074B80006060DC60DAE762
:10110000080E002064190020890D0010ED0E00105B
:101110004000003434190020F0B557464E4645468D
:10112000DE46E0B585B0019310AB1B780600039353
:1011300000239A46984600927268EFF3108B72B6BD
:101140001368002BFCD0BFF35F8F3568AC7B002C9D
:1011500000D16FE067002B683F19033FDB195A7815
:10116000AA73002A00D1EA734B4AA118B268090198
:10117000521800980199106051600E9991600F9972
:10118000D16042469A705A701A706B7B9946002B58
:1011900000D170E022004946A8686B6898472A6829
:1011A00000285BD04B4648465B004B44D719033BB5
:1011B000B870D118D35C002B00D07B704B460C70FC
:1011C0006B734C4558D0F3681B19013B1878736852
:1011D000BFF35F8F42461A608BF310885346002B93
:1011E00008D10002204305B0F0BCBB46B246A94678
:1011F000A046F0BD039B002B4BD00E9B00200F9907
:101200009847030004000D000B4342D000291ADA6E
:10121000009A019B121BAB4100920193802212069F
:10122000934204D301231D4C5B4200930194039B22
:101230009A4681E77368BFF35F8F1C608BF3108859
:1012400001204042CFE700F00BF9802224184D41E5
:101250001206009401959542E9D3E3E74B465B0003
:101260004B44033BD3189C70D119D25D002A00D0A7
:101270005A704B460B706C73307D009A019B00F0E6
:101280003FF9824600289ED02100306800F05CFBC8
:1012900099E70020A7E7C046FFFFFF0FFFFFFF7F92
:1012A000F0B5EFF30583CE46474680B505000C0048
:1012B00085B0002B0DD0324A0020536A9C4203D8DF
:1012C000926A0130AA4232D305B0C0BCB946B046DA
:1012D000F0BD2C4E029301932B4B02000093300083
:1012E0000B00FFF719FF031EE5DD20BF7168EFF368
:1012F000108772B60A68002AFCD0BFF35F8FDAB29B
:1013000094463068427B624516D0FF2201681A403D
:1013100089465100884649469044414403398978BA
:1013200000290BD13269934210D131610EE0E31AEA
:101330005A1E9341D8B2C7E7FF221A40F1681B0A30
:101340008A18013A1278DBB29A4214D07368BFF35C
:101350005F8F00221A6087F31088094B00205A6AB9
:101360009442B1D89B6A0130AB42ADD2A41A631E3D
:101370009C41E0B2A8E7614600F0E6FAE6E7C04625
:1013800000400540080E0020BD0D0010F0B5EFF341
:101390000582D6464F4646461000C0B51038EFF3DA
:1013A000108872B6214C2368002BFCD0BFF35F8FEE
:1013B0000123190081401E4D1F006963AA461D4D7F
:1013C00029601D4D2E78AC463500C5402F402B427C
:1013D00015D053465F6A194B8500EB589F4218D3CE
:1013E0006246174B8E43EB581670BFF35F8F002297
:1013F000226088F31088002B06D0984704E0BFF3E2
:101400005F8F276088F31088E0BCBA46B146A846D3
:10141000F0BD0C4B92009C46624413681360BFF30E
:101420005F8F0023236088F31088EDE7280100D048
:10143000004005403C7005408819002070190020CC
:10144000CC130020D03F054010B5034B010018001D
:10145000024AFFF73FF910BD85190020184500101A
:10146000034B596A0A00986A596A8A42FAD170474E
:101470000040054070B504000D00EFF3108672B611
:101480001A4A1368002BFCD0BFF35F8F002D1BD0CE
:101490002000FFF7CDF9164981420AD02000FFF75E
:1014A000CFF901212000FFF7B1F90123A340114A30
:1014B0001360114BA400E550BFF35F8F00220B4B6C
:1014C0001A6086F3108870BD0121A1400A4BA2006A
:1014D000D5500A4B20001A788A4305491A70FFF745
:1014E000D3FA00212000FFF791F9E5E7280100D0A9
:1014F0008D13001038600540CC130020881900209F
:10150000F0B54F46D6464646C0B507002B4C616A3B
:101510000D00A66A616AA942FAD18B4208D805D0AB
:101520000120E0BCBA46B146A846F0BDB242F7D9A8
:10153000EFF3108A72B6224801680029FCD0BFF38D
:101540005F8F0125BD401F491C4C8846097889469C
:101550002943C9B28C46414660460870391D89004E
:1015600065630A511849B8004350216A0020294296
:1015700019D0616A0800A66A616A8142FAD18B4279
:1015800019D801D1B24216D8CC450BD00B4B1F2233
:101590001D625D6301233A4093400C4A1360434649
:1015A0004A461A700120BFF35F8F0022044B1A6075
:1015B0008AF31088B5E70020F5E7C04600400540F3
:1015C000280100D0881900207019002080E200E076
:1015D000EFF3108C72B60A490B68002BFCD0BFF3F6
:1015E0005F8F01238340074A0748136202789A43BA
:1015F0000270BFF35F8F00230B608CF3108870477D
:10160000280100D0004005408819002070B5050071
:101610000E001400002923D0002A12D080686B68C5
:101620009847296800280ED063001B197200033BFD
:101630009219CB18033A9E7088188A5C002A11D13F
:101640000470300070BD73009B196200033B1219D7
:10165000CB18033A9C7088188A5C002A05D1067062
:101660002000EFE75A700470EBE75A700670F7E756
:1016700030B583600023CCB24373013304734260FE
:101680008373C4730D000068012C06D9421C01331A
:10169000DBB2137003329C42F9D1FF2129404B0089
:1016A0005B18C01800230338437030BD70B50500C7
:1016B0000C1E07D0630001681B19033BCB185A7836
:1016C000002A01D1200070BD50008018033809188D
:1016D00000204E784870210058702800FFF796FFD0
:1016E000310004002800FFF7E1FF0600002C26D09F
:1016F0000028E7D021003200A8686B689847296865
:1017000000280ED073009B196200033B1219CB18FE
:10171000033A9C7088188A5C002A00D05A700670C0
:10172000D0E763001B197200033B9219CB18033AF0
:101730009E7088188A5C002A00D05A7004703400A9
:10174000C0E7C046F0B557464546DE464E46E0B5D2
:101750000D006F0001687F19033F0400C85D83B06E
:101760000192CA19002850D043001B18033BCB1824
:101770005E78B446002E1AD1019E002E42D0E67B40
:10178000002E04D073009B19CB18033B5D70A37B24
:10179000002B00D1A573E57300282FD100235370CF
:1017A00003B0F0BCBB46B246A946A046F0BD7200ED
:1017B0006244033A8A18517888460021517089465C
:1017C0005970320001002000FFF720FF4346824697
:1017D000002B07D05B0021684344033BCB185A78A9
:1017E000002A16D1424651462000FFF70FFF21681C
:1017F000019BCA19002BC2D10028CFD043001B186F
:10180000033BCB1800219970C8E7019B002BB6D190
:10181000C4E75000801803380918487883464846C2
:101820004870587041462000FFF7F0FE5946804648
:101830002000FFF73BFF414602002000FFF7E6FED5
:101840008046CFE7F0B557464546DE464E46E0B502
:1018500083B00191457B04006F0000687F19033F4E
:10186000C15DC219002952D04B005B18033BC3185D
:101870005E78B446002E1CD1019E002E44D0E67B3B
:10188000002E04D073009B19C318033B5D70A37B2B
:10189000002B00D1A573E573002931D10023280066
:1018A0005370617303B0F0BCBB46B246A946A04674
:1018B000F0BD72006244033A8218507880460020DE
:1018C00050708146587032002000FFF79FFE43465B
:1018D0008246002B07D05B0021684344033BCB18B2
:1018E0005A78002A17D1424651462000FFF78EFE53
:1018F000019B01002068C219002BC0D10029CDD066
:101900004B005B18033BC31800209870C6E7019B8F
:10191000002BB4D1C2E7500080180338091848786A
:10192000834648464870587041462000FFF76EFED7
:10193000594680462000FFF7B9FE414602002000CC
:10194000FFF764FE8046CEE770B5050000292CD075
:10195000437B8B422ED04C0000686418033C041972
:10196000A278002A21D053009B18033BC25CC61802
:101970008A4202D11BE0002A08D053009B18033B87
:10198000C3185A788A42F6D162785A70002301222D
:101990002800A3706370FFF7D5FE697B0200280062
:1019A000FFF734FE6873012000E0002070BD63780B
:1019B0003370EBE701221900FFF7C4FEF2E7C046DF
:1019C00010B50C2082B000F0B5F9FEF77BFE0028C0
:1019D00010D08B4B8B488B498B4A186059609860AC
:1019E000D960186159619861D961186259625A6267
:1019F00002B010BD854CA06700F0A4F90122844B11
:101A00001A60636C012BFCD10322824B1A607F4A5F
:101A1000936B012BFCD1013301217F4A7F48009356
:101A2000043300F037F905237D4A009301217D48F6
:101A300000F030F97C4B5A68FF2A02D8802252000D
:101A40005A608022734B6E4C12011A602169002982
:101A500007D0606900F080FA013043001B18033B97
:101A6000FDD2E022704B714819680A4002600222E0
:101A70001968514001320A40042102609A681142FB
:101A8000FCD080216A4A09011160802252005A600C
:101A9000684B2361684B5968FF2900D85A600322BC
:101AA00001215B4B1A60644A93681942FCD0E02321
:101AB0001068034061480360126803234A40022112
:101AC00013405D4A036093681942FCD080215C4B4F
:101AD0000901196080215B4B4900516063615A4BD9
:101AE0005A68FF2A00D859608022584B12011A60A8
:101AF000E169002907D0606900F02EFA0130430047
:101B00001B18033BFDD2E0234F4A11680B4050499C
:101B10000B6080214F4B090119608021394B49002E
:101B20005160E3614C4B5A68FF2A00D8596080220B
:101B30004A4B12011A60216A002907D0606900F03F
:101B40000BFA013043001B18033BFDD2E023424A4D
:101B500011680B4042490B608021424B090119601A
:101B600080235B0053608022264BD20223623E4BCF
:101B70005968914200D25A6080223C4B12011A608F
:101B8000616A002907D0606900F0E6F9013043007E
:101B90001B18033BFDD2E023334A11680B40344944
:101BA0000B608021334B090119608023DB025360F5
:101BB000154B6362304B5A68FF2A02D880225200CC
:101BC0005A6080222D4B12011A60A169002907D0AA
:101BD000606900F0C1F9013043001B18033BFDD2DE
:101BE000E023254A11680B4025490B608021254BD5
:101BF0000901196080235B005360124BA361F7E673
:101C0000A00E0020006CDC021BB70000008000402A
:101C10003CB0004030B00040002F685900800240C6
:101C2000008C864700C00240308000403090004069
:101C300030A00040001BB7003C8000403C900040BA
:101C40003CA00040405973075480004054B000400D
:101C50005490004054A000406080004060B00040BC
:101C60006090004060A000406C8000406CB000407C
:101C70006C9000406CA000404880004048B000409C
:101C80004890004048A00040014B8000C058704779
:101C9000A00E0020F8B5040021481D0017000E001A
:101CA00000F05AF90100380000F056F9069B2904AB
:101CB0001B0319432368002B20DB1A4B1A4DE21833
:101CC00053425A4180235B019C461203174B6244E6
:101CD0001A60174B1A601700AB689F43FBD1C022F4
:101CE000231D92011A4321232660A06013602368FC
:101CF000002BFCDA0823E1601360F8BD3F23226863
:101D00001340B342D9D1A3681B051B0D8342D4D124
:101D1000EE22E368D20213408B42CED1EDE7C046FB
:101D2000001BB7000040FDBF00C0004000E00040C5
:101D300000F000408023024A9B000343D3627047B7
:101D400000800540AA23064A1B0113602F23054982
:101D5000D360054B19605368002BFCDA7047C0460E
:101D60000040024000B0FA00006002402C4B2D4AB7
:101D700070B51A602C4A2D4B2D491A6014008B68DF
:101D80009C43FBD12B4D2C4EB54208D2013E761B15
:101D9000B60808CD984723000134B342F9D1FFF7C4
:101DA0000FFE264A214B1A60214A9368DB43DB0170
:101DB000DD09002BF9D14022214B224C224E9A679B
:101DC0005A671A67DA66B44208D223682000002BEB
:101DD00020D00834FEF7BCFFB442F6D31B4C1C4E97
:101DE000C022B168200000F0C1FBB460FEF7E2FC45
:101DF000FEF786FFFFF75AF9164C174EB44208D289
:101E0000013E361BB60808CC98472B0001359E4290
:101E1000F9D170BD0834FEF78DFFB442D5D3DDE7AC
:101E200000E00040BFCDFBFEFE7F3C0000F0004024
:101E300000C00040880E0020980E0020FFFFFF0128
:101E400000F00140800E0020880E002000000020DD
:101E500000ED00E0980E0020A00E002000BEFDE77F
:101E600010B5FFF7FBFFC0460FB400B5084883B0BC
:101E700000F02CFC049B002B07D005A91800019151
:101E800000F018F8034800F021FC0120FFF7E6FFFE
:101E90003C4500104C45001010B50148FFF7E4FF29
:101EA0005045001010B5002800D110BD00F0C2FB55
:101EB000FBE7C04610B5094A0300146884B0002C43
:101EC00008D0012200910648524203A9A0470120F0
:101ED00004B010BD00F0FAFB0020F9E72C19002037
:101EE000A51E001001480421014B1847300E0020A8
:101EF000151F0010142310B50100188804331B8827
:101F0000984710BD162310B50100188802331B88AE
:101F1000984710BDF8B54746CE4680B50F1E19D07C
:101F200014239946043304000025012698464B46A5
:101F30001888434621681B88984701C4431E98416E
:101F4000013540420640AF42F1D13000C0BCB94635
:101F5000B046F8BD0126F8E7114A936F9B0813D2EB
:101F600010665166002905D0FFE7FFE7FFE7516FD4
:101F7000106F704704B5002801D00020C04302F064
:101F8000F3F9002104BDC046F0B5146E556E576FCD
:101F9000166FFFF7E5FF1466556657671667F0BDC5
:101FA000000000D094464A4A926F9208624601D2DD
:101FB00028E0C046F0B5464E346E756E776F366FCA
:101FC00000F020F89446424A146655665767166733
:101FD0006246F0BD94463E4A926F9208624601D234
:101FE00054E0C046F0B53A4E346E756E776F366F7A
:101FF00000F04CF89446364A1466556657671667E3
:102000006246F0BD002B24DB11D000293EDA00B57A
:10201000C943404200D1013100F038F8C943404281
:1020200000D10131DB43524200D1013300BD002A0F
:10203000EBD1002801D1002905D00020C90FC90724
:1020400001D1C043410800B502F07EF9002200230F
:1020500000BD00B500290ADBDB43524200D1013349
:1020600000F014F8C943404200D1013100BDC9431A
:10207000404200D10131DB43524200D1013300F034
:1020800005F8DB43524200D1013300BD002923D1C2
:10209000002B18D1002A0CD0BC460D4F38667A664A
:1020A00000210023FFE7FFE7FFE77A6F386F6746FD
:1020B0007047002801D00748010000B502F044F93C
:1020C0000022002300BD02000B0000200021704709
:1020D000000000D0FFFFFFFF002B00D0BFE0130C7B
:1020E00028D1002AE7D080B4114F39667A66FFE71D
:1020F000FFE730B4040C7B6F396F1B0423433B664E
:102100007A66FFE7FFE7FFE7C04684B27B6F3D6F6B
:102110001B0423433B667A66FFE7FFE7C0460023C4
:102120002C042D0C7A6F386F00196941B0BC7047D0
:10213000000000D0F0B594460025140E01D1120223
:102140000835140F01D112010435940F01D192000A
:102150000235D40F01D152000135D40B0134254F83
:102160007C66254C3C660E0C93B2FFE7FFE7FFE769
:102170003C6F6643360C7703BE467343DF0B5B044C
:10218000C01AB941130C7343DB18C91ACE08664351
:10219000360CB64493B273431F0F1B01C01AB941EA
:1021A000130C73431F0B1B05C01AB941860D8F0218
:1021B0003E436643360C092D24DB520A7243801AD3
:1021C0007703460A6643360C16235B1BDE40DF406E
:1021D000BF1964466643821B70460435063301000E
:1021E000D940A840C01900D30131A24206D2002331
:1021F000F0BD0000000000D0FFFFFFFF121B013008
:10220000F3D3F1E709277F1BFE406446A2B2724375
:10221000801A00D20139220C7243130C1204821A64
:1022200099410B007046043513370100F940A8406E
:10223000801900D30131002B02D1A2420AD2F0BD95
:10224000013000D30131121BFAD2013BF8D1A24276
:1022500000D2F0BD013000D30131121BF7E7F0B519
:102260001C0C00D080E00CB400251C0A04D11B0219
:10227000160E3343120208351C0B04D11B01160F36
:102280003343120104359C0B04D19B00960F33435A
:1022900092000235DC0B02D192185B4101351C0023
:1022A000971864410134464F7C66464C3C660E0CE0
:1022B000FFE7FFE7FFE7C0463C6F6643360C770356
:1022C000BE4697B27743C01B00D20139C01B00D273
:1022D00001399FB27743C91BC91B170C77437E0492
:1022E000FF0B801BB941CE086643360C0C2D33DB47
:1022F000B644120B1F053A431B0B97B27743C01B22
:1023000000D201399FB27743C91B170C77433E04B3
:102310003F0C801BB941860D8F023E43664329273F
:102320007F1BFE400C3D7746AF40BF1930BCA2B2C8
:10233000ABB272437343801A9941220C7243130C5F
:102340001204801A994102000B000137001BA941B9
:10235000F9D2781E0021F0BD0C277F1BFE40774686
:102360007F0BAF40FF19E0E700245D1C07D0144F3E
:102370007D663966FFE7FFE7FFE7FFE73C6F95B251
:102380009EB265436643401BB141150C1E0C65436C
:10239000664336042F0C3E432D04401BB141994245
:1023A00004D202000B0020000021F0BD01D19042B8
:1023B000F7D3801A994101349942F2D3F6E700002D
:1023C000000000D0FFFFFFFF132370B51D78012D23
:1023D00015D010DD1D48FFF795FD1D4C0100802232
:1023E000200000F0C3F8022D2DD01A48FFF782FD1F
:1023F000194B186070BD194B154CA364F5E7174BCA
:10240000134C23606360A360E36023616361A36195
:10241000E36123626362A362E36223636363A36392
:10242000E36323646364A364E36423656365A36572
:10243000E36523666366A366E36623676367A36752
:10244000E367A364D1E7054BA364CEE753440000E0
:10245000C80F00204C3300006019002061240010D8
:1024600007B5604601880A0A0230DF2AFAD1C9B2EC
:10247000820804D3028840880004104300E000680A
:10248000014A5050039007BDC80F002051434343F9
:10249000C9188C46110C83B24B4310B4040C614331
:1024A00092B280B2504362431C041B0C001910BC52
:1024B00059411304120CC018514161447047000087
:1024C000132310B512481C78FFF71CFD0100012CE6
:1024D0000AD003DD80220F4800F048F80E48FFF7CD
:1024E00009FD0E4B186010BD0A4C5422200000F06C
:1024F0003DF80B4B6365A365E36523666366A366DE
:10250000E36623676367A367E3672362E361E5E745
:1025100053460000C81000204C3300006019002012
:102520002525001007B5604601880A0A0230DF2A17
:10253000FAD1C9B2820804D302884088000410434B
:1025400000E00068014A5050039007BDC810002009
:1025500001480421014B1847400E0020151F0010B0
:10256000014B1B6818470000400E0020014B5B68C0
:1025700018470000400E0020F0B546464F46D646AC
:10258000C0B5437D80460E001700002B4BD0002ABB
:1025900032DD274B01259A464B1E00240020994628
:1025A00007E0335D0A2B2CD02B0001340135BB42F0
:1025B00013DA002CF5D133780A2BF5D143461B7D75
:1025C000002BF1D14346504602211B689847280052
:1025D0002B0001340135BB42EBDB874204DD43466F
:1025E000391A1B6830189847F619013E33780D3BAD
:1025F0005A42534142461375E0BCBA46B146A8461A
:10260000F0BD4B461B5D0D2BCED0A042DADA43461F
:10261000211A1B68301898474346504602211B6810
:1026200098472800D4E70368110030009847E3E793
:1026300020460010F0B5CE46474680B583B06B46C5
:102640000600DD1D2870FEF70BFF00231A4A121842
:102650004B41802109068B4202D30122174B524283
:1026600017490800884601F08FFE164B81461C680A
:10267000002C14D0144F02E02469002C0FD02368E2
:10268000002BF9D03B68002B01D0A342F4D12000ED
:1026900001222900FFF770FF2469002CEFD14B467F
:1026A000002B05D1300003B0C0BCB946B046F0BD28
:1026B000404601F041FEF5E740420F00FFFFFF7F7B
:1026C000800E00202015002028150020F0B5DE46E1
:1026D00057464E464546E0B585B0070001F0E2FD9D
:1026E0000600FEF7BDFE00232B4A12184B41802145
:1026F00009068B4202D30122284B52422849080086
:102700008B4601F041FE274B01901C689A46002C35
:102710003BD0254B984602ABDD1D0A23994602E0CB
:102720002469002C17D02368002BF9D043461B687E
:10273000002B01D0A342F3D1200032003900FFF773
:102740001BFF4B462000012229002B70FFF714FFCE
:102750002469002CE7D1019B002B18D153461C683B
:10276000002C06D06368002B0BD098472469002CFE
:10277000F8D1300005B0F0BCBB46B246A946A04631
:10278000F0BD2469002CEDD1F3E70028F1D05846C4
:1027900001F0D2FDE2E7C04640420F00FFFFFF7F9D
:1027A000800E0020201500202815002010B500F014
:1027B00001F810BD0020704710B5024800F0D8F8AD
:1027C00010BDC0464419002030B54B1E012900D170
:1027D000A7E0664A11780D112C0030349F2900D9EA
:1027E000A2E00470012B00D1BEE00F21147821403B
:1027F0000C003034092900D998E04470022B00D134
:10280000B2E054782511290030319F2C00D990E096
:102810008170032B00D1A7E00F2121400C00303440
:10282000092900D987E0C470042B00D19CE094787A
:102830002511290030319F2C00D97FE00171052B33
:1028400000D191E00F2121400C003034092900D93A
:1028500076E04471062B00D186E0D478251129005A
:1028600030319F2C00D96EE08171072B00D17BE0C5
:102870000F2121400C003034092966D8C471082B7F
:1028800000D171E014792511290030319F2C5FD8D7
:102890000172092B68D00F2121400C003034092926
:1028A00058D844720A2B5FD0547925112900303151
:1028B0009F2C52D881720B2B56D00F2121400C0037
:1028C000303409294BD8C4720C2B4DD09479251182
:1028D000290030319F2C00D9073101730D2B43D0D3
:1028E0000F2121400C003034092901D937310C0067
:1028F00044730E2B38D0D1790C11220030329F292D
:1029000000D9073282730F2B2ED00F220A401100FC
:102910003731092A01D830321100C173102B23D06E
:1029200010300023037030BD07345AE737310C00F4
:1029300063E707316CE737310C0074E707317DE757
:1029400037310C0085E707318EE737310C0095E70A
:1029500007319DE737310C00A3E70731AAE737318C
:102960000C00C4720C2BB1D1C018DAE74419002056
:1029700030B5002589B004000922002101A8009586
:10298000FFF7EEFD0922002105A80495FFF7E8FDF9
:102990004B236A466846137004A90D2201F0C4FC5B
:1029A0001521082220006944FFF7E0FD09B030BD81
:1029B00010B501210520FDF729FF10BD10B500223B
:1029C0000021024800F066F910BDC0464C150020F9
:1029D00080219022034B8902995080225201DA64AF
:1029E0007047C046002011508022024B5202DA6428
:1029F0007047C04600201150F0B5C64600B506002D
:102A000000F022F90C231B4DFF22AB6705201A4969
:102A1000FDF740FF40239846184C4022002120003B
:102A2000FFF79EFD43460127238321210023144AFB
:102A30006770A260136063545F31618441462187EF
:102A4000053963540F4A10496360E260A1620B606C
:102A50006362E26201F080FC80239B052F64EB64DB
:102A600090230A4A3000EA50FFF7BEFF80BCB84608
:102A7000F0BDC046000011505D0400202C15002060
:102A800084001050000110508000105010D0010040
:102A90000B785B0602D14B78052B00D070478A7803
:102AA000014B1A60FAE7C04600001150F0B5C64667
:102AB00000B5CC7888780A794B797F21A40701404A
:102AC0001B02C50913434F00A20F1400324E7A199E
:102AD0005201B218907001206840507000205B05D0
:102AE0005B0DD0701383D4768046CA00012D33D09D
:102AF0002A488446880162448446B4446046826021
:102B000040461060002933D0254AC90090466246ED
:102B1000414451603F223F339343022C00D15B007C
:102B200020487A1901685201B218D1601E4ACB18A8
:102B3000036051405A40802388465B019A4228D85E
:102B40004346A4061C4380237F197F01F61972684F
:102B50001B062343136011E0144884468801624435
:102B60008446B4446046826240461060002909D120
:102B700000236D0175196B600D4BEB60012080BC6B
:102B8000B846F0BD084AC9009046624641445162C9
:102B9000C0E7FFF781F9D3E72C150020840010501F
:102BA0000400105030190020000010508000105018
:102BB0000001105010B501F0CFFB10BD10B57F2003
:102BC0000C0020404000E409110000191A00034BDA
:102BD0004001C01800F05EF8012010BD2C15002047
:102BE0007F23180010B508400B420BD0C909802282
:102BF0004000074B401840010021C018120101F0AD
:102C0000D3FB10BD0223034AC9095B1A9366EEE7A2
:102C10002C150020002011507F22130010B50B400E
:102C20000A4200D110BDC9095B005B1804485B0172
:102C3000C018002300220349C37001F0B5FBF1E77F
:102C40002C150020FFF7FFFF80220D4B520410B51A
:102C50001A600C4B0C491A6010008B689843FBD12A
:102C60000A4C9C2200212000FFF77AFC80220021E0
:102C700052010748FFF774FC0923636710BDC04683
:102C800000E0004000F0004000C000400000115093
:102C900000001050002310B5C38201338282837676
:102CA0000161040001F030FB002804D08021902352
:102CB000074A8902D150200001F02EFB002802D0E3
:102CC0000123237710BD200001F066FBFAE7C04620
:102CD00000201150024B5878431E9841C0B27047F3
:102CE000B0120020024B18784007C00F7047C04652
:102CF000B0120020094A10B513785B07DC0F002BD7
:102D000005DA182312781340182B02D00024200073
:102D100010BD034B1878FFF75BFEF8E7B0120020F8
:102D2000740E0020034B1878FF38431E9841C0B240
:102D30007047C046740E0020F0B5C64600B52A4E56
:102D400005003378FF2B01D001203FE05322002102
:102D50002648FFF705FC264C2000FDF7EBFF254B2E
:102D60001C60254C2000143CFEF700F8200001F008
:102D700029F9224B224F1C60224B9846002B1DD074
:102D8000380000E000BF204B18603B78424600242A
:102D9000002A15D01D4A904642469C4219D39047BE
:102DA00001343B78E4B2A342F6D228003570FFF735
:102DB00023FE2800FFF7FCFD012007E03B78E5E754
:102DC00000F07AFE3B78002BEFD0002080BCB846A4
:102DD000F0BD0D4A630012681B19DB00D318002BED
:102DE000F3D01A68DBE7C046740E0020B012002052
:102DF00068120020041300206C0E0020081300202D
:102E00008219002000000000E4110020B93A0010EF
:102E1000F0B5DE4657464E464546E0B58FB000F069
:102E2000BBFF002800D117E1CA4BCB4E9B46CB4BD2
:102E30000BAC9946CA4B9A4635686A69EFF3108124
:102E400072B61368002BFCD0BFF35F8FA961280016
:102E5000210001F025F86A69AB69BFF35F8F00219B
:102E6000116083F31088002800D1F5E06378082B07
:102E7000E2D85A469B00D3589F466368002BDBD0AC
:102E8000A0689847D8E77F222179B44D0A405300C3
:102E9000C809EB181B181D0001273035E878B84326
:102EA000E870E8780337B843E870002A00D1F0E012
:102EB000AC4ADB7C002A06D0AB4A1278934200D29F
:102EC00064E19B1ADBB2002B00D0C5E0A74DA368DC
:102ED00062792078A847AFE70122A04D01202B7826
:102EE000042113432B703323EA5C8243EA54EA5CE7
:102EF0008A43EA540133EA5C8243EA54EA5C0020E4
:102F00008A43EA542378019300F0DAFC60232279A3
:102F10001340602B0DD0402B00D1C0E0D206D20E62
:102F2000012A00D13DE1022A00D1D5E0002A00D1DA
:102F3000C4E020780021FFF753FE80212078FFF7BE
:102F40004FFE79E74B461B78DB0700D474E7884BCC
:102F5000002B00D170E7FDF713FA6DE77F4D2B785A
:102F6000DB0700D468E7834B002B00D164E72878A7
:102F70000007C00FFDF7FCF95EE723787A4F794A26
:102F8000984600253B78002A4BD05246B2463E0078
:102F900017003A00AB4266D8404690470135337877
:102FA000EDB2AB42F5D25646BA466C4D53220021E3
:102FB0002800FFF7D5FA1022FF21E81CFFF7D0FA0E
:102FC00028002022FF211330FFF7CAFA2FE02378D0
:102FD000654F644A984600253B78002A30D0524617
:102FE000B2463E0017003A009D4247D34046904704
:102FF00001353378EDB2AB42F5D25646BA46574D5D
:10300000532200212800FFF7ABFA1022FF21E81C11
:10301000FFF7A6FA28002022FF211330FFF7A0FABD
:1030200015E0404600F052FD3B78002BBDD000F08B
:103030003DFC514B002B00D1FEE6FDF793F9FBE67A
:10304000404600F043FD3B78002BD8D0434D00F0C4
:103050002DFC2379AB70EFE60FB0F0BCBB46B24657
:10306000A946A046F0BD454A6B0012685B19DB001B
:10307000D318002B00D1ADE15A688DE73F4A6B00B1
:1030800012685B19DB00D318002B00D1A5E15A6848
:10309000ACE7A3686279207800F026FCCCE63848DB
:1030A000002800D145E700F00BFC012101980CAA93
:1030B00000E000BF002800D0BEE63AE7202B00D198
:1030C000A4E0002B00D034E76379092B00D930E766
:1030D0002C4A9B00D3589F467022217A0A4200D086
:1030E00027E70F320A405200CF09A818C019C07C48
:1030F000029284461B48002808D01B48007884456B
:1031000000D2A5E06246101AC2B29446604600287A
:1031100000D098E0002B00D058E11B4B9846607916
:103120000222030003909343012B00D158E10028B1
:1031300000D0FEE6029B0AAAEB18DB193033DB78DD
:1031400002329B07DB0F1380019802230CA900F0C9
:1031500057FB71E68C46001008130020B0120020C7
:10316000CD3A001000000000821900202D3D001013
:10317000810300107103001065030010E4110020AA
:1031800000000000B046001018470010BF4A580069
:103190001268C318DB00D318002B00D15CE71D694F
:1031A00095E6237A0F2B00D9C3E6B94AEB18DB78F2
:1031B000002A05D0B74A1278934265D39B1ADBB236
:1031C000002B00D0B5E6B448B44D00F079FB0121E6
:1031D000EB6801980CAA9847002800D02CE66022E2
:1031E000150023791D401A4200D0A2E663790A3BFC
:1031F000012B00D99DE600F063FB63790A2B00D117
:103200002EE101980CA900F0E5FA15E6237A0F2BC0
:1032100000D98EE69E4AEB18DB78002A06D09D4A3C
:103220001278934200D2FCE09B1ADBB2002B00D054
:103230007FE69948994D00F043FB0121EB68019826
:103240000CAA984736E79846002B00D167E770E64E
:10325000624652009046C44462468C48D2000068E0
:103260009446020062449046002B00D157E7002AA2
:1032700000D15EE6D06800F023FB43460121DB6805
:1032800001980CAA984715E7804A59001568CB1891
:10329000DB00ED18002D00D14BE6E86895E7E388E8
:1032A000012B00D045E608222B78019893430CA906
:1032B0002B7000F08FFABFE5022029780AAB9A1C28
:1032C0008B068908DB0F01400B433CE7A37904938D
:1032D0001A006B789A4207D06B78002B00D044E13B
:1032E000049B002B00D0E5E0049B01980CA96B70B7
:1032F00000F070FAA0E56B780AAA02321370019808
:1033000001230CA900F07CFA96E5E3881A0AD8B2EA
:103310000F2A00D90DE662499300CB589F460CA8AE
:1033200000F0D4FAA1790198FFF748FB02222B782C
:1033300013432B7080E5E388012B00D0F9E50822C8
:103340002B78019813430CA92B7000F043FA73E516
:10335000544B002B00D1ECE500E000BF021E00D171
:10336000E7E5D37891781B020B4301980CA900F094
:1033700047FA9FE64C4B002B00D1DAE500E000BF96
:10338000021E00D1D5E5137801980CA900F038FA97
:1033900090E62189FDF71AF9021EF4D1C9E5022A47
:1033A00000D160E1414B002B00D1C2E500E000BF3D
:1033B0000200002A00D1BCE5D3E7FDF7FBF8122399
:1033C00002000CA9019800F01BFA73E6334B324857
:1033D000984650E75646BA4629E65646BA4635E676
:1033E000E388002B08D1012826D0029BEA18D719C0
:1033F0003037FB789B073CD54746002F00D11BE5B3
:10340000F86800F05DFAFB6801210CAA0198984762
:10341000002000F055FA3423EB5CDB0700D50BE508
:10342000EFE61A4A59001568CB18DB00ED18002D9D
:1034300000D17EE5E868FEE6029BEA18D71930372E
:10344000FB789B07D8D51A4B1878FFF7E5FB0222CB
:10345000FB789343FB70FB78039A9343FB70CBE7B5
:103460000AAB9A1C019801230CA9157000F0C8F949
:10347000E2E40F4B1878FFF7B3FB0222FB7813430B
:103480000122FB70FB781343FB70B5E7E4110020C9
:103490000000000082190020693B0010184700104E
:1034A000D8460010000000000000000000000000EE
:1034B000740E0020581EC0B2FDF784F8002800D119
:1034C00037E54378022B00D033E50121C2790700AC
:1034D000931152110B400A4012015B0113432A78E9
:1034E0002F318A4313432B70C37882781B02134316
:1034F000C3180693644B09370593644B02960993EE
:10350000019B98465B46AB460393069BBB4200D8A3
:10351000ADE001227B7807920B2B03D1FB78079358
:103520003B78FF187B78042B63D10025069BDB1BBF
:103530009BB20193059B1A78554B0893099BAB42AC
:103540004CD0089BAA4200D984E0019E3900320089
:1035500040469847082801D9864259D2059B013533
:103560001A78EDB2AA42ECD243E0019B18009846CB
:10357000FFF720FB0021AB78434F444A03930291AD
:103580003B78002A21D0434A01920299019A8B424A
:1035900033D840469047029B0133DBB21A000293B6
:1035A0003B789342F1D243460193532200212800F5
:1035B000FEF7D6FF1022FF213748FEF7D1FF202269
:1035C000FF213648FEF7CCFF05E0019800F07EFAB7
:1035D0003B78002BE9D0039BAB7081E63900404675
:1035E000019A00F07DFA0600082802D9019B834267
:1035F0000FD2039B029E9B469BE48C46284B4A00BD
:103600001B686244D2009B18002B20D05A68C0E788
:1036100006000022584609E0BB78D318DBB2C31875
:10362000D978FF29E5D10132DD70D2B2079B9A42E9
:10363000F2D12B00390083463200184800F016FC06
:10364000059BBF191B78AB4200D35EE7D1E7434629
:103650000193C0E71822124B6A431B689B18002B8A
:10366000C7D09B6871E7FCF7ADFF0200A1E64346B7
:103670000193039B5D469B460A4B029E002B00D1A3
:1036800032E6FCF767FE2FE68219002000000000FA
:10369000E13A0010CD3A0010B3120020C31200200E
:1036A000E411002055030010F8B557464E46DE469B
:1036B00045460C00E0B516001F00002A3CD01F4B09
:1036C00000259A46702399461D4B9B4617E05B46A2
:1036D0002000997800F08CFB00281FD02100404684
:1036E000FFF7E4F9002819D0A378DA09012A1CD0E1
:1036F0000A9A013513702378E418B5421CDA63780E
:10370000052B0BD1E3789B079B0FBB4206D1534699
:103710004A461B789846A3781A42D8D00020F0BCBD
:10372000BB46B246A946A046F8BD0B9A01351370B8
:103730002378E418B542E2DB0120F0E7740E0020A4
:10374000B01200200B007F2010B51840DB09333386
:103750004000044AC018044B1168C01800F020FB58
:1037600010BDC04604130020B012002070B57F24A5
:103770000F480C4064000419CD0964193034E07816
:10378000C00701D5002070BD0126E5780948354302
:103790000078E570FFF712FA0028F4D10122E378EF
:1037A0009343E370E37803329343E370EAE7C04660
:1037B000B0120020740E00207F22054B0A405200F8
:1037C000C9099B185B183033D878C007C00F704701
:1037D000B012002070B5094C0600082220000D0030
:1037E000FEF7C4FE00238021E360A3602B78300045
:1037F000994300220023FFF7B9FF70BDE8110020B4
:10380000F8B5CE4647469046264E80B581460822FA
:1038100030000D001F00FEF7A9FE4346B3600023F1
:10382000F381EC79AB7924021C43231CBC4200D900
:103830003B1C9FB2B381002C0ED0002F18D0434602
:10384000002B2CD03B1C402F1BD89FB233787F2BF2
:103850001CD80021144A0FE080212B7800229943C4
:1038600048460023FFF782FFC0BCB946B046F8BD0A
:103870007F230022317899433B004846FFF776FFCB
:10388000F2E740239FB233787F2BE2D9064C3A000F
:1038900041462000FEF76AFE80212200ECE700206E
:1038A000E2E7C046E81100207012002010B5142293
:1038B00000210248FEF754FE10BDC046E81100206A
:1038C000014B18617047C046E811002010B5054C47
:1038D000010008222000FEF749FE0023A360E360F8
:1038E00010BDC046E811002070B5394C1D0023788A
:1038F0000600DA09C9098A4213D00020002D00D041
:1039000070BD344B002B03D021003000FFF7C0F80E
:103910002369002B03D022000321300098470120A7
:10392000EEE77F2B06D8A068002834D02A002A4969
:10393000FEF71CFEE289A1685219E38892B2491988
:10394000E281A160934214D03F2D12D9A389981A25
:10395000051C80B240282AD82078ADB27F2828D80C
:1039600000219A4232D01C4A2B003000FFF7FEFEA5
:10397000C6E72369002B05D02200022130009847BA
:1039800000280AD0802123780022994330000023A8
:10399000FFF7ECFEB4E70020B2E700213000FFF7AC
:1039A0001FF930008021FFF71BF90120A8E740250F
:1039B000D2E79A4207D0084C2A002000FEF7D6FD35
:1039C00080212200D0E780210022CDE70022CBE732
:1039D000E8110020912A0010701200202C2242438E
:1039E0000B4B10B59B185C78FFF774F9002801D1D8
:1039F000002010BDFFF776F90028F9D1002CF7D090
:103A00002100FFF7D9FE01235840C0B2F1E7C046BC
:103A10003C120020F0B557464E464546DE462C2463
:103A200091460022E0B583B098460CAB1B78444326
:103A30005BB29B460DAB1B781E4E5BB200930EAB88
:103A40000F009A56311905008A46002049780192E4
:103A5000FFF778FE002815D0002F1AD14B46083406
:103A600032191370434653705B469370009BD370BA
:103A7000019B137105232C2169437618002071786E
:103A8000FFF774FE03B0F0BCBB46B246A946A046A1
:103A9000F0BD51460F724946083432195170414603
:103AA00091705946009BD1701371019B537106238D
:103AB000E1E7C0463C12002010B52C22002102484C
:103AC000FEF74EFD10BDC0463C12002010B52C2262
:103AD00000210248FEF744FD10BDC0463C12002004
:103AE000F0B54B7906000D0083B0032B0FD1087998
:103AF000C400241A1234A4B2944208D8194F7B7817
:103B0000002B04D1297869184B78212B03D000248D
:103B1000200003B0F0BDB9620B780200C9187B1C0D
:103B20000193BB1C009330000323FFF7BDFD002869
:103B3000EDD0AB79012B01D1EB79FB7001233B7107
:103B4000AB78B9783B70BB6ADA791B7A1B021343F6
:103B5000FB800029DCD03A00102330001832FFF738
:103B600005FED5E73C1200201F23F0B514001278A3
:103B7000050083B01340012B1BD1634E20793378AD
:103B8000984216D1602318001040134208D0202814
:103B90000FD163780B2B0CD85C4A9B00D3589F46FF
:103BA000012918D1E378A17862781B020B43062A19
:103BB00002D0002003B0F0BD1B0A212B00D187E00A
:103BC000222BF6D10020FCF7F9FC21000200F3883B
:103BD0002800FFF715FE0120ECE70129FBD1E17871
:103BE0004B4B7171002B04D0002000E000BF002877
:103BF000DFD021002800FFF7EDFD0120DAE70129E1
:103C000070D00329E7D1E079A37900021843E27864
:103C1000A178041C102800D910243E4BA4B200291E
:103C200007D0012805D9307E884202D1013C3A4BA9
:103C3000A4B200200094FCF7E3FB0120BAE70129BD
:103C4000D7D00329C7D1A178344B3171002BC2D012
:103C5000002000E000BF0120ACE70129BBD1E379DF
:103C6000A0791B020343E278A178181C102B00D91D
:103C7000102080B2002943D0012B41D93300012705
:103C80000138317280B2093300900020FCF7B6FB96
:103C90003B189BB2002B00D18BE721002800204A63
:103CA000FFF7AEFD012085E7012994D10123210012
:103CB00028001C4AFFF7A4FD01207BE701298AD1D7
:103CC000012321002800184AFFF79AFD012071E71F
:103CD000B26A002A00D16CE7210028001378FFF7B0
:103CE0008FFD67E7E379A2791B021343102B00D9FC
:103CF0005FE721002800074AFFF782FD012059E70E
:103D00000027074BC0E7C0463C1200203047001098
:103D10000000000054120020551200200000000096
:103D200044120020401200204112002070B5144CB3
:103D30000500A278667882B08A420ED000208E42BA
:103D400001D002B070BD0F4A002A04D000200E49F5
:103D50009AB200E000BF0120F3E79642F3D02600BC
:103D60009BB2183600930022330000210020FCF79C
:103D700047FB102332002800A178FFF7F7FCE0E7AB
:103D80003C120020000000004412002010B500206A
:103D9000FEF7D2FF10BDC04610B5FEF7C3FF10BD41
:103DA000037870B5DB0704000E00DD0F002B17D180
:103DB00003785B0701D5280070BD0121300049421E
:103DC00000F0DAFA2378DB07DD0F002B0AD1237825
:103DD0005B0708D40422237801251343237002E0F3
:103DE0000025E8E70025300000F0A6FAE3E7C0462A
:103DF000437902791B0213435B055A0DC3789B0775
:103E00009B0F022B05D0032B15D00020012B08D0CF
:103E1000704702291ED00020402393424041C0B287
:103E2000F6E702394B4259410D4B9C4661449142A1
:103E30004041C0B2ECE702394B1E9941094B49425F
:103E400019408023DB009C460020614491424041A0
:103E5000C0B2DDE7044BD01843425841C0B2D7E7A7
:103E6000FF03000040FCFFFF00FEFFFF8A1870B553
:103E7000914207D27F264C78052C04D00C78091982
:103E80008A42F8D870BD34008D782C406400041943
:103E9000ED0963550C7809198A42ECD8F2E7C0465F
:103EA00070B5040000690E00002803D001214942CA
:103EB00000F062FA25896089A288A9B283B285429E
:103EC0002BD3CD1AADB2002D2DD0AA4208D29142EB
:103ED0002FD3891A8BB263819A4203D89B1A9BB263
:103EE0009A42FBD9E28821685204520C53433000B5
:103EF000C918FEF73BFB63890125591C89B2A288CA
:103F00008B4212D95200891A89B220696181002836
:103F100001D000F011FA280070BD5500ED1A4D19BE
:103F2000ADB2002DD1D1618989B252009142ECDB52
:103F3000E9E789188BB26381CEE7C046F8B5040083
:103F4000C0680E00002803D00121494200F014FA95
:103F5000258920896189A288ADB283B28FB2884257
:103F600028D3DB1B9BB29A4209D8E779FF0906D117
:103F7000E068002801D000F0DFF93800F8BD2B0020
:103F8000954203D39B1A9BB29342FBD2E2882068EE
:103F90005204520C53433100C018FEF7E7FAA288CE
:103FA0006B1C9BB252009D4209D99B1A9BB2012700
:103FB0002381DDE75100C91B5B189BB2D3E7934215
:103FC000F5DBF2E710B50400C068002803D001213A
:103FD000494200F0D1F92069002803D0012149426B
:103FE00000F0CAF90023E06863812381002801D032
:103FF00000F0A2F92069002801D000F09DF901200D
:1040000010BDC046F8B5DE4657464E464546834687
:10401000E0B505200C00FDF737FE06006008210022
:104020008019FDF799FF4300984680440700052159
:104030004046FDF791FF3B1A9A46204B814670009F
:1040400080199C4234D81E49FDF786FF451C5B460B
:104050001C6800230422E3662368012053400232D7
:104060001A4080235B0123431A605346E3614B46A9
:10407000236243464F2B03D950214046FDF76CFF86
:10408000A023E050E36F22005D4080237C322D04AA
:104090005B0113432D0C1D60012339003000E366E2
:1040A000FDF75AFFF0BCBB46B246A946A046F8BD94
:1040B0000449FDF751FF451CC9E7C0463F420F00C8
:1040C0008096980040787D01104A70B5821A53425C
:1040D0005A41072352429A430D4B10321A600D4B3E
:1040E0000D4C1A601500A3689D432B1EFAD166245F
:1040F0000268FF340571D5661460633C8833FF3C69
:10410000D5639563D450FFF77DFF70BD780E002016
:1041100000E0004000F0004000C00040F0B557460D
:104120004E46DE4645468446E0B583B01F000CABE4
:1041300018786346914600221B680190DA660132C6
:104140005960DA66002F4FDD7A1E9046624612797A
:1041500001269202802493463A004640760280254A
:104160003700002046461021A2469046AD00341A82
:10417000624254414A4664423C4000945C46125CB0
:104180002243009C22431A615A6B1142FCD05246D2
:104190009C58002C10D1864221D000220130934639
:1041A0008045E4D16346019A1A7103B0F0BCBB4666
:1041B000B246A946A046F0BD5A6D012293465A6BFD
:1041C0002A42FCD01A6E5A46002AE6D0002C03D0B0
:1041D000E30701D42407E5D402204042E2E7019A34
:1041E000002ADAD19346EAE70020DBE7F0B5DE46A5
:1041F0004E4645465746E0B5060009A800783468A3
:1042000080460020E066616001219346E166002B54
:1042100032DD8022591E52008C4692468025616F05
:104220001029FCD00021002801D131798902604594
:104230001CD052461143216102E0A16F00290DD12B
:104240006159616D0029F8D0022040424346337124
:10425000F0BCBB46B246A946A046F0BD5A4621690D
:10426000115401308342F1D03468D8E74246012727
:1042700057407A021143DCE70020E7E710B5192028
:10428000FCF702FAD02380221B0692045A6210BD6A
:10429000D02380221B069204002801D05A61704767
:1042A0009A61FCE710B583070AD00300032102E0FE
:1042B00001330B4205D01A78002AF9D1181A10BD23
:1042C000030019680C4A0D4C8A188A4322420FD108
:1042D0005968094A04338A188A43224208D1596826
:1042E000054A04338A188A432242F1D000E00133A0
:1042F0001A78002AFBD1E1E7FFFEFEFE8080808075
:10430000F8B5C0460000000001B40248844601BC74
:10431000604700BF6D09002001B40248844601BC1B
:10432000604700BF9509002001B40248844601BCE3
:10433000604700BF8902002001B40248844601BCE6
:10434000604700BFED01002001B40248844601BC73
:10435000604700BF350D002001B40248844601BC0F
:10436000604700BF4903002001B40248844601BCF5
:10437000604700BF350D002001B40248844601BCEF
:10438000604700BF5D01002001B40248844601BCC3
:10439000604700BFC100002001B40248844601BC50
:1043A000604700BF090B002001B40248844601BCED
:0843B000604700BFB10A0020C4
:1043B80054696E795553420054696E7955534220B9
:1043C800446576696365000009040000090222005B
:1043D800010100A0320904000001030000000921C6
:1043E8001101000122EF00070581031000050000FC
:1043F80005010906A1018500050719E029E715004F
:104408002501950875018102950175088101050846
:104418001901290595057501910295017503910109
:10442800050719002AFF00150026FF0095067508E4
:104438008100C005010902A10185010901A100054A
:1044480009190129051500250195057501810295B0
:1044580001750381010501093009311581257F9511
:10446800027508810609381581257F95017508812F
:1044780006050C0A38021581257F95017508810605
:10448800C0C0050C0901A1018502150026FF03190A
:10449800002AFF03950175108100C005010905A1D7
:1044A8000185030501093009310932093509330944
:1044B800341581257F95067508810205010939158E
:1044C8000125083500463B0195017508810205095B
:1044D8001901292015002501952075018102C000C8
:1044E8001201000200000040FECA0440000101025F
:1044F800030100004E6F207370696E6C6F636B73FD
:104508002061726520617661696C61626C6500008A
:10451800486172647761726520616C61726D2025F3
:104528006420616C726561647920636C61696D6592
:10453800640000000A2A2A2A2050414E4943202AB2
:104548002A2A0A000A000000486172642061737315
:104558006572740052656C6561736500626F6F7493
:10456800325F77323571303830000000687474700B
:10457800733A2F2F6769746875622E636F6D2F7297
:10458800617370626572727970692F7069636F2DDB
:104598006578616D706C65732F747265652F484519
:1045A80041442F2E2E2F2E2E2F7069636F5F61735B
:1045B8007369676E6D656E74732F687731332F6D0D
:1045C80061696E00312E352E310000007069636F0D
:1045D800000000006D61696E000000004D617920E7
:1045E800323720323032340006005250D3F0754250
:1045F8005C45001006005250E182887F6445001037
:10460800060052509A23561874450010060052505E
:10461800BBFF3CB6D44500100D0A0000556E68611A
:104628006E646C65642049525120307825780A0000
:1046380065702025642025732077617320616C7272
:104648006561647920617661696C61626C650000FE
:1046580043616E277420636F6E74696E7565207888
:10466800666572206F6E20696E6163746976652075
:104678006570202564202573000000006F757400A4
:10468800696E0000382E0010CE2F00107A2F00100F
:10469800382E00105C2F0010442F0010D82E001068
:1046A800862E00107A2E0010B83200109E320010AC
:1046B800322F001036330010322F00101E33001036
:1046C8000A330010322F0010F6320010CC320010DE
:1046D800322F0010BA3300109E33001092330010AE
:1046E800322F0010322F0010743300109E33001048
:1046F800322F0010322F0010322F0010322F0010EE
:10470800322F0010322F0010322F001050330010BB
:10471800B93A0010CD3A0010E13A0010693B001098
:104728002D3D001000000000B23B00105A3C001064
:10473800BC3C0010A83C0010B23B0010B23B00107B
:10474800B23B0010B23B0010B23B0010FE3B001021
:10475800DA3B00103E3C00104C4544000900525022
:08476800000000026047001090
:10477000F0450010FC4500100846001088020010AB
:104780001446001094020010A0020010AC020010A9
:04479000644700106A
:10479400F0B5C646150000B504001E000268EFF32C
:1047A400108172B61368002BFCD0BFF35F8F042313
:1047B400E356002B2DDB2268BFF35F8F00201060CF
:1047C40081F31088D0221206127852B290469A428F
:1047D40003D1002080BCB846F0BD00270BE023685D
:1047E400BFF35F8F1F6081F310882800310000F051
:1047F40033FE0028EDD12268EFF3108172B61368FE
:10480400002BFCD0BFF35F8F23797F2BE7D943467E
:1048140002E0D0231B061B6823712368BFF35F8F5C
:1048240000221A6081F310880120D3E7F0B5C64650
:1048340000B50D00040000F017FEFA2206000F0078
:10484400002328000021920000F0F6FD8023361892
:104854004F411B069F4202D30126174F7642D023B5
:104864001B061B68002598460BE02368BFF35F8F87
:104874001D6081F310883000390000F0EDFD002840
:1048840018D12268EFF3108172B61368002BFCD0A4
:10489400BFF35F8F23797F2BE7D9434623712368C6
:1048A400BFF35F8F00221A6081F31088012080BC5F
:1048B400B846F0BD0020FAE7FFFFFF7F0268EFF380
:1048C400108172B61368002BFCD0BFF35F8FFF23F7
:1048D40003710368BFF35F8F00221A6081F31088AD
:1048E40040BF704710B5084C2378002B0AD18023B1
:1048F400064807495B051A68C25004338B42FAD153
:104904000123237010BDC04684190020DC1300105D
:104914000001001010B5014B984710BDDD130020B5
:10492400034B1A68C0239B009343024A13607047E9
:104934000C8001400C900140054B1A6880239B00B9
:104944005340C02292001340024A13607047C0468D
:104954000C8001400C9001401423F0B5D6464F461C
:1049640046469A46814618880433C0B598460E00D8
:104974001B88264914009847534607001888434665
:1049840023491B8898475346050018884346214904
:104994001B8898478046FFF7A5FFB847A847FFF74D
:1049A400CBFF221E20D0C02108270220490511E098
:1049B400002C14D0131B0D2B20D9002D0AD023005A
:1049C400002A05D00B6E013A3370130001362343DD
:1049D400002B09D03D008B6A1D401842E8D1002D00
:1049E400EDD123001343F5D1FFF79AFFC047FFF73A
:1049F40091FFE0BCBA46B146A846F0BD4B461B78D1
:104A0400013C0B6601239C46E144E8E7494600006B
:104A140045580000464300000022154B10B59A602B
:104A2400DA601A615A619A61DA611A625A629A62A8
:104A3400DA621A635A639A63DA631A645A649A6488
:104A4400DA641A655A659A65DA651A665A669A6668
:104A5400DA661A675A679A67DA67F03292000021B9
:104A6400044800F0D9FC044B044A1A6010BDC04647
:104A7400000010506C1500203019002080011050E7
:104A8400F0B55746DE464E464546E0B5244B87B062
:104A94009F6D002F23D0234B002499460123984671
:104AA400214B01269A4604E001347600E4B2202C1E
:104AB40015D03E42F8D04B469E65434665086D00CE
:104AC400A343ED186D015544280000F0BBFB0028FA
:104AD4000CD10134B743E4B27600002FE7D107B01C
:104AE400F0BCBB46B246A946A046F0BDAB7802A8CE
:104AF4009B46EB8A062200210630019300F08CFCD1
:104B0400E023594602AADB009380019B117203A89B
:104B14000121059300F0BEFB280000F02BFBD8E731
:104B240000001150003011502C1500209823C84A61
:104B3400F0B5D55880232C009B02102685B01C406C
:104B44001D427AD0C34BC44C9A6AC44B00261A60E7
:104B54003B23E35C022B00D1DFE07B23E35C022BED
:104B640000D1B9E1BB23E35C022B00D1A9E1FB2313
:104B7400E35C022B00D199E13C23FF33E35C022B7D
:104B840000D158E17C23FF33E35C022B00D145E1E3
:104B9400BC23FF33E35C022B00D132E1FC23FF335F
:104BA400E35C022B00D11FE1AD4BE35C022B00D18F
:104BB4000EE1AC4BE35C022B00D1FDE0AA4BE35CBD
:104BC400022B00D1ECE0A94BE35C022B00D1DBE02B
:104BD400A74BE35C022B00D1CAE0A64BE35C022B9B
:104BE40000D1ABE0A44BE35C022B00D17FE1A34BEB
:104BF400E35C022B00D196E1002E08D1A04B1B7878
:104C0400002B04D180219F4A90338902D150904BCC
:104C14000A229C6C6B460021981D00F0FDFBC0230A
:104C2400640501AE9B00640D3380300002940121C1
:104C3400802400F02FFB944EA402EB0669D4802359
:104C44005B021D4214D0012223211C43824B5A547F
:104C5400DA70C0238D4ADB00019302AB03CA03C39D
:104C6400012101A800F016FB8022864B92021A65EE
:104C740080235B011D4233D18023DB011D421CD103
:104C840080231B021D4204D1AC4200D0C8E105B010
:104C9400F0BD1C436B460A220021981D00F0BCFBAA
:104CA400A02301AEDB0033800121300000F0F2FAD2
:104CB4008022744B12011A65E6E71C436B460A22F4
:104CC4000021981D00F0A8FB802301AEDB00338097
:104CD4000121300000F0DEFA10226A4B1A65CFE79A
:104CE40000221C435A4B01AE1A60FFF795FE6B4637
:104CF4000A220021981D00F08FFB80235B00338083
:104D04000121300000F0C6FA80225E4B12031A65BE
:104D1400B2E7FFF7B5FE340091E73833E65C002EC6
:104D240000D11AE70233E25C002A00D115E7200023
:104D340000222030E25400F04FFA0EE7544BE75CB7
:104D4400002F00D14EE70233E25C002A00D060E17C
:104D5400494BE35C022B00D1DBE0484BE35C022BC4
:104D640000D054E74B4BE35C002B00D0E0E04EE76F
:104D7400494BE75C002F00D12FE70233E25C002AA5
:104D840000D03EE13E0028E7444BE75C002F00D111
:104D94001EE70233E25C002A00D02AE13E0017E756
:104DA4003F4BE75C002F00D10DE70233E25C002AA1
:104DB40000D016E13E0006E73A4BE75C002F00D135
:104DC400FCE60233E25C002A00D002E13E00F5E694
:104DD400354BE75C002F00D1EBE60233E25C002A9E
:104DE40000D0EEE03E00E4E6F933FF33E75C002F49
:104DF40000D1D9E60233E25C002A00D0D8E03E00BC
:104E0400D2E6B933FF33E75C002F00D1C6E60233A4
:104E1400E25C002A00D0C2E03E00BFE67933FF33F3
:104E2400E75C002F00D1B3E60233E25C002A00D035
:104E3400ACE03E00ACE63933FF33E75C002F00D131
:104E4400A0E60233E25C002A00D096E03E0099E638
:104E540000001150004005402C15002024150020AE
:104E64003B0200007B020000BB020000FB020000CA
:104E74003B0300007B030000BB030000FB030000B6
:104E8400831900200030115010000200000010505F
:104E94007A030000FA0300003A030000FA0200005B
:104EA400BA0200007A0200003A020000F833E75C1C
:104EB400002F00D160E60233E25C002A55D13E00A7
:104EC4005AE6B833E75C002F00D150E60233E25CC7
:104ED400002A42D13E004AE67833E75C002F00D135
:104EE40040E60233E25C002A2FD13E003AE64F4B03
:104EF400E35C002B00D17AE6EF239B00E25C002AFE
:104F040000D12AE70022E2541C3BE01800F064F9C7
:104F140023E7464BE35C002BEED1454BE35C022BCD
:104F240000D074E63E00434BE35C002B00D163E603
:104F3400FF239B00E25C002A00D168E60022E254D1
:104F44001C3BE01800F048F961E6200000226030C4
:104F5400E2543E0000F040F904E620000022A030B4
:104F6400E2543E0000F038F901E620000022E0306F
:104F7400E2543E0000F030F9FEE52000002221302A
:104F8400FF30E2543E0000F027F9FBE52000002248
:104F94006130FF30E2543E0000F01EF9F8E52000D5
:104FA4000022A130FF30E2543E0000F015F9F5E58F
:104FB40020000022E130FF30E2543E0000F00CF902
:104FC400F2E50022E2541C3BE01800F005F93E0033
:104FD400EFE50022E2541C3BE01800F0FDF83E002F
:104FE400ECE50022E2541C3BE01800F0F5F83E002A
:104FF400E9E50022E2541C3BE01800F0EDF83E0025
:10500400E6E50022E2541C3BE01800F0E5F83E001F
:10501400E3E50022E2541C3BE01800F0DDF897E6DB
:1050240021000548694000F00FFAC046BA030000A9
:10503400FB030000FA03000024460010084A0300A2
:10504400126C0020920703D49A78D209012A00D066
:105054007047D87E023843425841C0B2F8E7C04690
:105064000000115010B5FFF7E9FF00280CD00749E4
:10507400074B8C46074A9B6A126863449B1A0020BC
:10508400C6229A424041C0B210BDC046E0FCFFFFB8
:105094000040054024150020F8B5028B838A0400E3
:1050A4000F00161C9A4200D91E1CE27880211500BC
:1050B400681E8541B6B2C90031436D030D43012119
:1050C4004A409B1BE27062789BB2A382002A09D0FB
:1050D400002B02D18023DB011D43002F00D02D04BF
:1050E4002800F8BDE068BB01C0183200216900F057
:1050F4008BF923699B19236180231B021D43A38A17
:10510400E6E7C046836870B504001D68002900D036
:105114002D0C6378AD05AD0D002B09D1E38AEB1896
:10512400E382238BAB4201D90023A382280070BD04
:10513400E368890159182A00206900F065F9E38AB7
:10514400EB18E38223695B192361EAE710B50400D5
:10515400836800211B68FFF7D5FF63681B685B0049
:1051640002D5238B834200D010BD01212000FFF71C
:10517400C9FFF9E700238376436103617047C046A2
:1051840010B58368002901D01C682140002A11D081
:105194008024E400114322420CD01A6822420BD12D
:1051A4000A4A0A401A60FFE7FFE7FFE7FFE7FFE765
:1051B400FFE78368196010BD81787F20CA09044B1A
:1051C40092000140D258034800F03EF9FFFBFFFF74
:1051D400500E002038460010436870B50021802529
:1051E4001E680400FFF758FF134B6D011B6C054349
:1051F4009B070FD5A3785B060FD0104B1E4080236E
:105204009B05334362680021136020002A00FFF7E6
:10521400B7FF70BDA378DB09EFD0A38A002BECD0D5
:1052240001212000FFF738FFA023054ADB053240A7
:1052340005431343E6E7C04600001150FFFFFFAFEC
:10524400FFFFFFDF70B5857E0400002D14D0FFF74B
:105254007DFFA38A002B01D1280070BD2000FFF739
:1052640001FF002803D0012300252377F4E7200061
:10527400FFF7B2FF0025EFE781787F20CA09034BCF
:1052840092000140D258024800F0DEF8500E00208F
:1052940058460010F0B54378050085B0042B00D1C2
:1052A40075E046D8022B00D183E0032B55D1504E34
:1052B400504A00243378002A00D192E04E4F03E094
:1052C4000134E4B29C4213D8A342F9D9620039688C
:1052D4001219D2008A18002AF2D05269002AEFD09B
:1052E40069682878904701343378E4B29C42EBD95A
:1052F400424B1A78520748D504211A788A431A7007
:105304006B460A220021981D00F086F86A462B7825
:105314001371052353713A4B1C686269EFF31081D2
:1053240072B61368002BFCD0BFF35F8FA16101A993
:1053340020E0052B11D1314B1A78D20725D5042151
:105344001A788A431A702E4B1C686269EFF3108135
:1053540072B61368002B09D1FBE7294B1C686269FC
:10536400EFF3108172B61368002BFCD0BFF35F8F8C
:10537400A1612900200000F057F86269A369BFF316
:105384005F8F0021116083F3108805B0F0BD1B4BC3
:105394001A78D207F9D504211A780A431A70184BDF
:1053A4001C686269EFF3108172B61368002BDDD1BB
:1053B400FBE70120114A1178814311701178994358
:1053C400002311700421537013788B4313700C4B1A
:1053D4001C686269EFF3108172B61368002BC5D1A3
:1053E400FBE700220132D2B29A42FBD980E7C046E1
:1053F4008219002000000000E4110020B0120020F7
:10540400081300207047C04601B40248844601BC1A
:10541400604700BF6D25001001B40248844601BCFA
:10542400604700BF6125001001B40248844601BCF6
:10543400604700BF3D3F001001B40248844601BCF0
:10544400604700BF8D24001001B40248844601BCAB
:10545400604700BF691E001001B40248844601BCC5
:10546400604700BFA112001001B40248844601BC89
:10547400604700BF61140010FA000000D043001020
:10548400B8430010C04300104C1900201000000065
:105494000000000000000100000000000000000007
:1054A40000000200000000000000000000000300F3
:1054B40000000000000000000000FF0000000000E9
:1054C40001B5486801318E460047704609380149E4
:1054D400884701BD4D0C0010200E00200000000084
:1054E400C80E0020E01400200000000000000000AE
:1054F400F014002000000000000000001000000074
:10550400503300004C330000543300005233000089
:105514004D5300004D430000533400004334000059
:1055240084460010884600100C13002010000C0064
:105534000000000000000000000000000000000067
:1055440000000000FF0000000040044000000000D4
:10555400000000000000000051250010E51E0010AE
:10556400C9230010C124001031030010B927001012
:04000005100001E9FD
:00000001FF
